{
  "contractName": "HealthcareToken",
  "abi": [
    {
      "inputs": [
        {
          "internalType": "uint256",
          "name": "initialSupply",
          "type": "uint256"
        }
      ],
      "stateMutability": "nonpayable",
      "type": "constructor"
    },
    {
      "anonymous": false,
      "inputs": [
        {
          "indexed": true,
          "internalType": "address",
          "name": "owner",
          "type": "address"
        },
        {
          "indexed": true,
          "internalType": "address",
          "name": "spender",
          "type": "address"
        },
        {
          "indexed": false,
          "internalType": "uint256",
          "name": "value",
          "type": "uint256"
        }
      ],
      "name": "Approval",
      "type": "event"
    },
    {
      "anonymous": false,
      "inputs": [
        {
          "indexed": false,
          "internalType": "uint256",
          "name": "newFeeRate",
          "type": "uint256"
        }
      ],
      "name": "FeeRateChanged",
      "type": "event"
    },
    {
      "anonymous": false,
      "inputs": [
        {
          "indexed": false,
          "internalType": "bool",
          "name": "enabled",
          "type": "bool"
        }
      ],
      "name": "FeesEnabledChanged",
      "type": "event"
    },
    {
      "anonymous": false,
      "inputs": [
        {
          "indexed": true,
          "internalType": "address",
          "name": "newContract",
          "type": "address"
        }
      ],
      "name": "PatientManagementContractChanged",
      "type": "event"
    },
    {
      "anonymous": false,
      "inputs": [
        {
          "indexed": true,
          "internalType": "address",
          "name": "from",
          "type": "address"
        },
        {
          "indexed": true,
          "internalType": "address",
          "name": "to",
          "type": "address"
        },
        {
          "indexed": false,
          "internalType": "uint256",
          "name": "value",
          "type": "uint256"
        }
      ],
      "name": "Transfer",
      "type": "event"
    },
    {
      "inputs": [
        {
          "internalType": "address",
          "name": "",
          "type": "address"
        },
        {
          "internalType": "address",
          "name": "",
          "type": "address"
        }
      ],
      "name": "allowance",
      "outputs": [
        {
          "internalType": "uint256",
          "name": "",
          "type": "uint256"
        }
      ],
      "stateMutability": "view",
      "type": "function",
      "constant": true
    },
    {
      "inputs": [
        {
          "internalType": "address",
          "name": "",
          "type": "address"
        }
      ],
      "name": "balanceOf",
      "outputs": [
        {
          "internalType": "uint256",
          "name": "",
          "type": "uint256"
        }
      ],
      "stateMutability": "view",
      "type": "function",
      "constant": true
    },
    {
      "inputs": [],
      "name": "decimals",
      "outputs": [
        {
          "internalType": "uint8",
          "name": "",
          "type": "uint8"
        }
      ],
      "stateMutability": "view",
      "type": "function",
      "constant": true
    },
    {
      "inputs": [],
      "name": "feesEnabled",
      "outputs": [
        {
          "internalType": "bool",
          "name": "",
          "type": "bool"
        }
      ],
      "stateMutability": "view",
      "type": "function",
      "constant": true
    },
    {
      "inputs": [
        {
          "internalType": "address",
          "name": "",
          "type": "address"
        }
      ],
      "name": "isExemptFromFee",
      "outputs": [
        {
          "internalType": "bool",
          "name": "",
          "type": "bool"
        }
      ],
      "stateMutability": "view",
      "type": "function",
      "constant": true
    },
    {
      "inputs": [],
      "name": "name",
      "outputs": [
        {
          "internalType": "string",
          "name": "",
          "type": "string"
        }
      ],
      "stateMutability": "view",
      "type": "function",
      "constant": true
    },
    {
      "inputs": [],
      "name": "owner",
      "outputs": [
        {
          "internalType": "address",
          "name": "",
          "type": "address"
        }
      ],
      "stateMutability": "view",
      "type": "function",
      "constant": true
    },
    {
      "inputs": [],
      "name": "patientManagementContract",
      "outputs": [
        {
          "internalType": "address",
          "name": "",
          "type": "address"
        }
      ],
      "stateMutability": "view",
      "type": "function",
      "constant": true
    },
    {
      "inputs": [],
      "name": "symbol",
      "outputs": [
        {
          "internalType": "string",
          "name": "",
          "type": "string"
        }
      ],
      "stateMutability": "view",
      "type": "function",
      "constant": true
    },
    {
      "inputs": [],
      "name": "totalSupply",
      "outputs": [
        {
          "internalType": "uint256",
          "name": "",
          "type": "uint256"
        }
      ],
      "stateMutability": "view",
      "type": "function",
      "constant": true
    },
    {
      "inputs": [],
      "name": "transferFeeRate",
      "outputs": [
        {
          "internalType": "uint256",
          "name": "",
          "type": "uint256"
        }
      ],
      "stateMutability": "view",
      "type": "function",
      "constant": true
    },
    {
      "stateMutability": "payable",
      "type": "receive",
      "payable": true
    },
    {
      "inputs": [
        {
          "internalType": "address",
          "name": "_contract",
          "type": "address"
        }
      ],
      "name": "setPatientManagementContract",
      "outputs": [],
      "stateMutability": "nonpayable",
      "type": "function"
    },
    {
      "inputs": [
        {
          "internalType": "bool",
          "name": "_enabled",
          "type": "bool"
        }
      ],
      "name": "setFeesEnabled",
      "outputs": [],
      "stateMutability": "nonpayable",
      "type": "function"
    },
    {
      "inputs": [
        {
          "internalType": "uint256",
          "name": "_feeRate",
          "type": "uint256"
        }
      ],
      "name": "setTransferFeeRate",
      "outputs": [],
      "stateMutability": "nonpayable",
      "type": "function"
    },
    {
      "inputs": [
        {
          "internalType": "address",
          "name": "_address",
          "type": "address"
        },
        {
          "internalType": "bool",
          "name": "_isExempt",
          "type": "bool"
        }
      ],
      "name": "setFeeExemption",
      "outputs": [],
      "stateMutability": "nonpayable",
      "type": "function"
    },
    {
      "inputs": [
        {
          "internalType": "address",
          "name": "recipient",
          "type": "address"
        },
        {
          "internalType": "uint256",
          "name": "amount",
          "type": "uint256"
        }
      ],
      "name": "transfer",
      "outputs": [
        {
          "internalType": "bool",
          "name": "",
          "type": "bool"
        }
      ],
      "stateMutability": "nonpayable",
      "type": "function"
    },
    {
      "inputs": [
        {
          "internalType": "address",
          "name": "spender",
          "type": "address"
        },
        {
          "internalType": "uint256",
          "name": "amount",
          "type": "uint256"
        }
      ],
      "name": "approve",
      "outputs": [
        {
          "internalType": "bool",
          "name": "",
          "type": "bool"
        }
      ],
      "stateMutability": "nonpayable",
      "type": "function"
    },
    {
      "inputs": [
        {
          "internalType": "address",
          "name": "sender",
          "type": "address"
        },
        {
          "internalType": "address",
          "name": "recipient",
          "type": "address"
        },
        {
          "internalType": "uint256",
          "name": "amount",
          "type": "uint256"
        }
      ],
      "name": "transferFrom",
      "outputs": [
        {
          "internalType": "bool",
          "name": "",
          "type": "bool"
        }
      ],
      "stateMutability": "nonpayable",
      "type": "function"
    },
    {
      "inputs": [
        {
          "internalType": "address",
          "name": "recipient",
          "type": "address"
        },
        {
          "internalType": "uint256",
          "name": "amount",
          "type": "uint256"
        }
      ],
      "name": "mint",
      "outputs": [],
      "stateMutability": "nonpayable",
      "type": "function"
    },
    {
      "inputs": [
        {
          "internalType": "uint256",
          "name": "amount",
          "type": "uint256"
        }
      ],
      "name": "burn",
      "outputs": [],
      "stateMutability": "nonpayable",
      "type": "function"
    },
    {
      "inputs": [
        {
          "internalType": "address",
          "name": "recipient",
          "type": "address"
        },
        {
          "internalType": "uint256",
          "name": "amount",
          "type": "uint256"
        }
      ],
      "name": "rewardForHealthcareAction",
      "outputs": [],
      "stateMutability": "nonpayable",
      "type": "function"
    },
    {
      "inputs": [],
      "name": "withdrawETH",
      "outputs": [],
      "stateMutability": "nonpayable",
      "type": "function"
    },
    {
      "inputs": [
        {
          "internalType": "address",
          "name": "tokenAddress",
          "type": "address"
        },
        {
          "internalType": "uint256",
          "name": "amount",
          "type": "uint256"
        }
      ],
      "name": "withdrawERC20",
      "outputs": [],
      "stateMutability": "nonpayable",
      "type": "function"
    }
  ],
  "bytecode": "0x608034620001b2576200127638819003601f8101601f191683016001600160401b03811184821017620001b757839282916040528339602092839181010312620001b25751600090620000538254620001cd565b601f811162000186575b50826f2432b0b63a3431b0b932902a37b5b2b760811b0182556001620000848154620001cd565b601f811162000158575b506006621210d560ea1b0181556002805460ff1990811660121790915560088490556009805482169055600480546001600160a01b0319163317905591670de0b6b3a76400009080151560001982900483111662000144570280600355338452600685526040842055600a845260408320918254161790557fddf252ad1be2c89b69c2b068fc378daa952ba7f163c4a11628f55a4df523b3ef600354926040519384523393a360405161106b90816200020b8239f35b634e487b7160e01b85526011600452602485fd5b81845281601f868620920160051c8201915b8281106200017a5750506200008e565b8581550182906200016a565b828052601f848420910160051c8101905b818110620001a657506200005d565b83815560010162000197565b600080fd5b634e487b7160e01b600052604160045260246000fd5b90600182811c92168015620001ff575b6020831014620001e957565b634e487b7160e01b600052602260045260246000fd5b91607f1691620001dd56fe60806040818152600480361015610021575b505050361561001f57600080fd5b005b600092833560e01c9081630184a8c314610d355750806306fdde0314610c79578063095ea7b314610c0857806318160ddd14610be957806323b872dd14610a85578063313ce56714610a63578063351bf51814610a4457806340c10f191461099757806342966c68146108d15780636a6aeeb21461080257806370a08231146107ca578063751fd1791461076e5780638da5cb5b1461074757806395d89b41146106485780639e80dd6e1461061f578063a1db97821461057b578063a64e4f8a14610557578063a901dd92146104e2578063a9059cbb1461040c578063bdf14510146102a0578063c894e1e5146101f9578063dd62ed3e146101ac5763e086e5ec0361001157346101a857826003193601126101a85780546001600160a01b031661014d338214610e22565b47918215610170575083808093819382f1156101665751f35b51903d90823e3d90fd5b606490602085519162461bcd60e51b835282015260126024820152714e6f2045544820746f20776974686472617760701b6044820152fd5b8280fd5b5050346101f557806003193601126101f557806020926101ca610d70565b6101d2610d8b565b6001600160a01b0391821683526007865283832091168252845220549051908152f35b5080fd5b50346101a85760203660031901126101a85780359061022260018060a01b038254163314610e22565b6101f4821161025d57506020817fdd72d2879718489eb363ba6099239f89d49542612862c71545503d35cfddda46926008558351908152a151f35b606490602084519162461bcd60e51b8352820152601960248201527f46656520726174652063616e6e6f7420657863656564203525000000000000006044820152fd5b50346101a857816003193601126101a8576102b9610d70565b6005546001600160a01b039081169190338390036103a35780821693841561036057506102f56102ed60ff60025416611007565b602435610e7c565b9286526006602052848620548690841161031b5750610318935060055416610ebf565b51f35b9260008051602061101683398151915292506020915061033d81600354610eb2565b60035584845260068252858420610355828254610eb2565b90558551908152a351f35b606490602087519162461bcd60e51b8352820152601a60248201527f52657761726420746f20746865207a65726f20616464726573730000000000006044820152fd5b845162461bcd60e51b8152602081860152603b60248201527f4f6e6c79207468652050617469656e74204d616e6167656d656e7420636f6e7460448201527f726163742063616e2063616c6c20746869732066756e6374696f6e00000000006064820152608490fd5b50346101a857816003193601126101a857602092610428610d70565b9060243591818560ff6009541691826104c9575b826104aa575b505061048a575b6104578261045e9394610ea5565b9033610ebf565b8061046d575b50505160018152f35b905461048391906001600160a01b031633610ebf565b3880610464565b61045e91506104576127106104a160085486610e7c565b04925050610449565b6001600160a01b0384168152600a8952205460ff161590508538610442565b915050338152600a87528560ff8183205416159161043c565b50346101a85760203660031901126101a85780359081151580920361055357547fea91b03193405a75b08084654a6c1d0a2c46eb6dd6024d1f532a3cb87be24a439160209161053b906001600160a01b03163314610e22565b60ff196009541660ff8216176009558351908152a151f35b8380fd5b5050346101f557816003193601126101f55760209060ff6009541690519015158152f35b50346101a857816003193601126101a8576020610596610d70565b91604460018060a01b03918683825416936105b2853314610e22565b8751968795869463a9059cbb60e01b86528501526024356024850152165af18015610613576105df575051f35b6020813d821161060b575b816105f760209383610da1565b810103126101a85751801515036101f55751f35b3d91506105ea565b505051903d90823e3d90fd5b5050346101f557816003193601126101f55760055490516001600160a01b039091168152602090f35b5090346101a857826003193601126101a85780519183600180549182821c92828116801561073d575b602095868610821461072a575084885290811561070857506001146106b0575b6106ac86866106a2828b0383610da1565b5191829182610dd9565b0390f35b9295508083527fb10e2d527612073b26eecdfd717e6a320cf44b4afac2b0732d9fcbe2b7fa0cf65b8284106106f557505050826106ac946106a2928201019438610691565b80548685018801529286019281016106d8565b60ff191687860152505050151560051b83010192506106a2826106ac38610691565b634e487b7160e01b845260229052602483fd5b93607f1693610671565b50346101a857826003193601126101a8575490516001600160a01b03909116815260209150f35b50346101a857816003193601126101a857610787610d70565b90602435918215158093036107c6576107ab60018060a01b03809354163314610e22565b168352600a6020528183209060ff8019835416911617905551f35b8480fd5b5050346101f55760203660031901126101f55760209181906001600160a01b036107f2610d70565b1681526006845220549051908152f35b5090346101a85760203660031901126101a85761081d610d70565b82546001600160a01b0391906108369083163314610e22565b1691821561088f5750600580546001600160a01b03191683179055818352600a602052808320805460ff1916600117905551907fbb1b7c7e5ae12651148960c29d62a6f15d81deb5b24fb570b28fd0c0e441f3e68383a2f35b6020606492519162461bcd60e51b8352820152601760248201527f43616e6e6f7420736574207a65726f20616464726573730000000000000000006044820152fd5b50346101a85760203660031901126101a8576108fb6108f460ff60025416611007565b8235610e7c565b903384526006602052818385205410610954575082903382526006602052828220610927828254610ea5565b905561093581600354610ea5565b600355825190815260008051602061101683398151915260203392a351f35b606490602084519162461bcd60e51b8352820152601b60248201527f4275726e20616d6f756e7420657863656564732062616c616e636500000000006044820152fd5b50346101a857816003193601126101a8576109b0610d70565b81546001600160a01b0391906109c99083163314610e22565b16908115610a0157508260008051602061101683398151915260206109f56102ed60ff60025416611007565b61033d81600354610eb2565b606490602084519162461bcd60e51b8352820152601860248201527f4d696e7420746f20746865207a65726f206164647265737300000000000000006044820152fd5b5050346101f557816003193601126101f5576020906008549051908152f35b5050346101f557816003193601126101f55760209060ff600254169051908152f35b50346101a85760603660031901126101a857610a9f610d70565b610aa7610d8b565b906044359160018060a01b039081831693848852602097600789528781203382528952818882205410610b9c578088919660ff6009541680610b87575b80610b70575b610b47575b92610b1c9282610b2396958a945260078d528181203382528d5220610b15828254610ea5565b9055610ea5565b9084610ebf565b82610b32575b85855160018152f35b610b3e93541690610ebf565b38808080610b29565b909650610b239392610b1c92612710610b6260085484610e7c565b049892919495509250610aef565b508585168252600a8b5260ff838320541615610aea565b50808252600a8b5260ff838320541615610ae4565b875162461bcd60e51b81528088018a9052602160248201527f5472616e7366657220616d6f756e74206578636565647320616c6c6f77616e636044820152606560f81b6064820152608490fd5b5050346101f557816003193601126101f5576020906003549051908152f35b5050346101f557806003193601126101f55760209181610c26610d70565b91602435918291338152600787528181209460018060a01b0316948582528752205582519081527f8c5be1e5ebec7d5bd14f71427d1e84f3dd0314c0f7b2291e5b200ac8c7c3b925843392a35160018152f35b5090346101a857826003193601126101a8578051918380549060019082821c928281168015610d2b575b602095868610821461072a57508488529081156107085750600114610cd3576106ac86866106a2828b0383610da1565b8080949750527f290decd9548b62a8d60345a988386fc84ba6bc95484008f6362f93160ef3e5635b828410610d1857505050826106ac946106a2928201019438610691565b8054868501880152928601928101610cfb565b93607f1693610ca3565b849084346101a85760203660031901126101a85760209260ff91906001600160a01b03610d60610d70565b168152600a855220541615158152f35b600435906001600160a01b0382168203610d8657565b600080fd5b602435906001600160a01b0382168203610d8657565b90601f8019910116810190811067ffffffffffffffff821117610dc357604052565b634e487b7160e01b600052604160045260246000fd5b6020808252825181830181905290939260005b828110610e0e57505060409293506000838284010152601f8019910116010190565b818101860151848201604001528501610dec565b15610e2957565b60405162461bcd60e51b815260206004820152602560248201527f4f6e6c7920746865206f776e65722063616e2063616c6c20746869732066756e60448201526431ba34b7b760d91b6064820152608490fd5b8060001904821181151516610e8f570290565b634e487b7160e01b600052601160045260246000fd5b91908203918211610e8f57565b91908201809211610e8f57565b6001600160a01b03908116918215610fc25716918215610f7d576000828152600660205281604082205410610f385760008051602061101683398151915291604082856020945260068452818120610f18848254610ea5565b90558681526006845220610f2d828254610eb2565b9055604051908152a3565b60405162461bcd60e51b815260206004820152601f60248201527f5472616e7366657220616d6f756e7420657863656564732062616c616e6365006044820152606490fd5b60405162461bcd60e51b815260206004820152601c60248201527f5472616e7366657220746f20746865207a65726f2061646472657373000000006044820152606490fd5b60405162461bcd60e51b815260206004820152601e60248201527f5472616e736665722066726f6d20746865207a65726f206164647265737300006044820152606490fd5b604d8111610e8f57600a0a9056feddf252ad1be2c89b69c2b068fc378daa952ba7f163c4a11628f55a4df523b3efa264697066735822122076353a2f7745e8fc51f116e237c1188e44f676c5a8c04fcf6076243da267651264736f6c63430008100033",
  "immutableReferences": {},
  "source": "// SPDX-License-Identifier: MIT\r\npragma solidity ^0.8.0;\r\n\r\n/**\r\n * @title HealthcareToken\r\n * @dev ERC20 Token implementation for healthcare rewards and payments\r\n */\r\ncontract HealthcareToken {\r\n  string public name = 'Healthcare Token';\r\n  string public symbol = 'HCT';\r\n  uint8 public decimals = 18;\r\n  uint256 public totalSupply;\r\n\r\n  address public owner;\r\n  address public patientManagementContract;\r\n\r\n  mapping(address => uint256) public balanceOf;\r\n  mapping(address => mapping(address => uint256)) public allowance;\r\n\r\n  // Fee system for certain operations\r\n  uint256 public transferFeeRate = 0; // No fee by default\r\n  bool public feesEnabled = false;\r\n\r\n  // List of addresses exempt from fees\r\n  mapping(address => bool) public isExemptFromFee;\r\n\r\n  // Events\r\n  event Transfer(address indexed from, address indexed to, uint256 value);\r\n  event Approval(address indexed owner, address indexed spender, uint256 value);\r\n  event FeeRateChanged(uint256 newFeeRate);\r\n  event FeesEnabledChanged(bool enabled);\r\n  event PatientManagementContractChanged(address indexed newContract);\r\n\r\n  modifier onlyOwner() {\r\n    require(msg.sender == owner, 'Only the owner can call this function');\r\n    _;\r\n  }\r\n\r\n  modifier onlyPatientManagement() {\r\n    require(\r\n      msg.sender == patientManagementContract,\r\n      'Only the Patient Management contract can call this function'\r\n    );\r\n    _;\r\n  }\r\n\r\n  /**\r\n   * @dev Constructor that gives the deployer all initial tokens\r\n   */\r\n  constructor(uint256 initialSupply) {\r\n    owner = msg.sender;\r\n    totalSupply = initialSupply * 10 ** uint256(decimals);\r\n    balanceOf[msg.sender] = totalSupply;\r\n\r\n    // Owner is exempt from fees\r\n    isExemptFromFee[msg.sender] = true;\r\n\r\n    emit Transfer(address(0), msg.sender, totalSupply);\r\n  }\r\n\r\n  /**\r\n   * @dev Set the Patient Management contract address\r\n   */\r\n  function setPatientManagementContract(address _contract) public onlyOwner {\r\n    require(_contract != address(0), 'Cannot set zero address');\r\n    patientManagementContract = _contract;\r\n\r\n    // Make the contract exempt from fees\r\n    isExemptFromFee[_contract] = true;\r\n\r\n    emit PatientManagementContractChanged(_contract);\r\n  }\r\n\r\n  /**\r\n   * @dev Enable or disable fees\r\n   */\r\n  function setFeesEnabled(bool _enabled) public onlyOwner {\r\n    feesEnabled = _enabled;\r\n    emit FeesEnabledChanged(_enabled);\r\n  }\r\n\r\n  /**\r\n   * @dev Set the transfer fee rate (in basis points, 1/100 of a percent)\r\n   * 100 = 1%, 10 = 0.1%, 1 = 0.01%, max 500 (5%)\r\n   */\r\n  function setTransferFeeRate(uint256 _feeRate) public onlyOwner {\r\n    require(_feeRate <= 500, 'Fee rate cannot exceed 5%');\r\n    transferFeeRate = _feeRate;\r\n    emit FeeRateChanged(_feeRate);\r\n  }\r\n\r\n  /**\r\n   * @dev Set an address as exempt from fees\r\n   */\r\n  function setFeeExemption(address _address, bool _isExempt) public onlyOwner {\r\n    isExemptFromFee[_address] = _isExempt;\r\n  }\r\n\r\n  /**\r\n   * @dev Transfer tokens from sender to recipient\r\n   */\r\n  function transfer(address recipient, uint256 amount) public returns (bool) {\r\n    uint256 feeAmount = 0;\r\n\r\n    // Calculate fee if applicable\r\n    if (feesEnabled && !isExemptFromFee[msg.sender] && !isExemptFromFee[recipient]) {\r\n      feeAmount = (amount * transferFeeRate) / 10000;\r\n    }\r\n\r\n    _transfer(msg.sender, recipient, amount - feeAmount);\r\n\r\n    // Transfer fee to owner if any\r\n    if (feeAmount > 0) {\r\n      _transfer(msg.sender, owner, feeAmount);\r\n    }\r\n\r\n    return true;\r\n  }\r\n\r\n  /**\r\n   * @dev Approve the spender to spend the specified amount of tokens on behalf of the sender\r\n   */\r\n  function approve(address spender, uint256 amount) public returns (bool) {\r\n    allowance[msg.sender][spender] = amount;\r\n    emit Approval(msg.sender, spender, amount);\r\n    return true;\r\n  }\r\n\r\n  /**\r\n   * @dev Transfer tokens from one address to another\r\n   */\r\n  function transferFrom(address sender, address recipient, uint256 amount) public returns (bool) {\r\n    require(allowance[sender][msg.sender] >= amount, 'Transfer amount exceeds allowance');\r\n\r\n    uint256 feeAmount = 0;\r\n\r\n    // Calculate fee if applicable\r\n    if (feesEnabled && !isExemptFromFee[sender] && !isExemptFromFee[recipient]) {\r\n      feeAmount = (amount * transferFeeRate) / 10000;\r\n    }\r\n\r\n    allowance[sender][msg.sender] -= amount;\r\n    _transfer(sender, recipient, amount - feeAmount);\r\n\r\n    // Transfer fee to owner if any\r\n    if (feeAmount > 0) {\r\n      _transfer(sender, owner, feeAmount);\r\n    }\r\n\r\n    return true;\r\n  }\r\n\r\n  /**\r\n   * @dev Internal function to transfer tokens\r\n   */\r\n  function _transfer(address sender, address recipient, uint256 amount) internal {\r\n    require(sender != address(0), 'Transfer from the zero address');\r\n    require(recipient != address(0), 'Transfer to the zero address');\r\n    require(balanceOf[sender] >= amount, 'Transfer amount exceeds balance');\r\n\r\n    balanceOf[sender] -= amount;\r\n    balanceOf[recipient] += amount;\r\n\r\n    emit Transfer(sender, recipient, amount);\r\n  }\r\n\r\n  /**\r\n   * @dev Mint tokens to a specified address (only callable by the owner)\r\n   */\r\n  function mint(address recipient, uint256 amount) public onlyOwner {\r\n    require(recipient != address(0), 'Mint to the zero address');\r\n\r\n    uint256 mintAmount = amount * 10 ** uint256(decimals);\r\n    totalSupply += mintAmount;\r\n    balanceOf[recipient] += mintAmount;\r\n\r\n    emit Transfer(address(0), recipient, mintAmount);\r\n  }\r\n\r\n  /**\r\n   * @dev Burn tokens from the caller's account\r\n   */\r\n  function burn(uint256 amount) public {\r\n    uint256 burnAmount = amount * 10 ** uint256(decimals);\r\n    require(balanceOf[msg.sender] >= burnAmount, 'Burn amount exceeds balance');\r\n\r\n    balanceOf[msg.sender] -= burnAmount;\r\n    totalSupply -= burnAmount;\r\n\r\n    emit Transfer(msg.sender, address(0), burnAmount);\r\n  }\r\n\r\n  /**\r\n   * @dev Reward tokens for specific healthcare actions (can only be called by the Patient Management contract)\r\n   */\r\n  function rewardForHealthcareAction(\r\n    address recipient,\r\n    uint256 amount\r\n  ) public onlyPatientManagement {\r\n    require(recipient != address(0), 'Reward to the zero address');\r\n\r\n    uint256 rewardAmount = amount * 10 ** uint256(decimals);\r\n\r\n    // Check if there are enough tokens in the contract balance\r\n    if (balanceOf[patientManagementContract] >= rewardAmount) {\r\n      // Transfer from contract balance\r\n      _transfer(patientManagementContract, recipient, rewardAmount);\r\n    } else {\r\n      // Mint new tokens\r\n      totalSupply += rewardAmount;\r\n      balanceOf[recipient] += rewardAmount;\r\n      emit Transfer(address(0), recipient, rewardAmount);\r\n    }\r\n  }\r\n\r\n  /**\r\n   * @dev Withdraw ETH accidentally sent to the contract (only callable by the owner)\r\n   */\r\n  function withdrawETH() public onlyOwner {\r\n    uint256 balance = address(this).balance;\r\n    require(balance > 0, 'No ETH to withdraw');\r\n\r\n    payable(owner).transfer(balance);\r\n  }\r\n\r\n  /**\r\n   * @dev Withdraw any ERC20 tokens accidentally sent to the contract (only callable by the owner)\r\n   */\r\n  function withdrawERC20(address tokenAddress, uint256 amount) public onlyOwner {\r\n    // Create a generic ERC20 interface to interact with the token\r\n    IERC20 token = IERC20(tokenAddress);\r\n    token.transfer(owner, amount);\r\n  }\r\n\r\n  // Enable the contract to receive ETH\r\n  receive() external payable {}\r\n}\r\n\r\n/**\r\n * @title IERC20\r\n * @dev Interface for interacting with other ERC20 tokens\r\n */\r\ninterface IERC20 {\r\n  function transfer(address recipient, uint256 amount) external returns (bool);\r\n  function balanceOf(address account) external view returns (uint256);\r\n}\r\n\r\n/**\r\n * @title HealthcareRewards\r\n * @dev Contract to manage healthcare rewards and incentives\r\n */\r\ncontract HealthcareRewards {\r\n  HealthcareToken public token;\r\n  address public patientManagementContract;\r\n  address public owner;\r\n\r\n  // Reward amounts (in tokens with decimals)\r\n  uint256 public registrationReward = 10;\r\n  uint256 public appointmentCompletionReward = 5;\r\n  uint256 public regularCheckupReward = 15;\r\n  uint256 public vaccinationReward = 20;\r\n\r\n  // Keeping track of rewards\r\n  mapping(address => uint256) public totalRewardsEarned;\r\n  mapping(address => uint256) public lastRewardTime;\r\n\r\n  // Cooldown periods for rewards (in seconds)\r\n  uint256 public constant REGISTRATION_COOLDOWN = 30 days;\r\n  uint256 public constant APPOINTMENT_COOLDOWN = 1 days;\r\n  uint256 public constant CHECKUP_COOLDOWN = 90 days;\r\n\r\n  // Events\r\n  event RewardIssued(address indexed recipient, uint256 amount, string rewardType);\r\n  event RewardAmountChanged(string rewardType, uint256 newAmount);\r\n  event PatientManagementContractChanged(address indexed newContract);\r\n\r\n  modifier onlyOwner() {\r\n    require(msg.sender == owner, 'Only the owner can call this function');\r\n    _;\r\n  }\r\n\r\n  modifier onlyPatientManagement() {\r\n    require(\r\n      msg.sender == patientManagementContract,\r\n      'Only the Patient Management contract can call this function'\r\n    );\r\n    _;\r\n  }\r\n\r\n  constructor(address payable _tokenAddress) {\r\n    token = HealthcareToken(_tokenAddress);\r\n    owner = msg.sender;\r\n  }\r\n\r\n  /**\r\n   * @dev Set the Patient Management contract address\r\n   */\r\n  function setPatientManagementContract(address _contract) public onlyOwner {\r\n    require(_contract != address(0), 'Cannot set zero address');\r\n    patientManagementContract = _contract;\r\n    emit PatientManagementContractChanged(_contract);\r\n  }\r\n\r\n  /**\r\n   * @dev Set the reward amounts\r\n   */\r\n  function setRewardAmounts(\r\n    uint256 _registration,\r\n    uint256 _appointment,\r\n    uint256 _checkup,\r\n    uint256 _vaccination\r\n  ) public onlyOwner {\r\n    registrationReward = _registration;\r\n    appointmentCompletionReward = _appointment;\r\n    regularCheckupReward = _checkup;\r\n    vaccinationReward = _vaccination;\r\n\r\n    emit RewardAmountChanged('registration', _registration);\r\n    emit RewardAmountChanged('appointment', _appointment);\r\n    emit RewardAmountChanged('checkup', _checkup);\r\n    emit RewardAmountChanged('vaccination', _vaccination);\r\n  }\r\n\r\n  /**\r\n   * @dev Issue a registration reward\r\n   */\r\n  function issueRegistrationReward(address patient) public onlyPatientManagement {\r\n    require(\r\n      block.timestamp - lastRewardTime[patient] >= REGISTRATION_COOLDOWN,\r\n      'Registration reward cooldown period not met'\r\n    );\r\n\r\n    lastRewardTime[patient] = block.timestamp;\r\n    totalRewardsEarned[patient] += registrationReward;\r\n\r\n    token.rewardForHealthcareAction(patient, registrationReward);\r\n    emit RewardIssued(patient, registrationReward, 'registration');\r\n  }\r\n\r\n  /**\r\n   * @dev Issue an appointment completion reward\r\n   */\r\n  function issueAppointmentReward(address patient) public onlyPatientManagement {\r\n    require(\r\n      block.timestamp - lastRewardTime[patient] >= APPOINTMENT_COOLDOWN,\r\n      'Appointment reward cooldown period not met'\r\n    );\r\n\r\n    lastRewardTime[patient] = block.timestamp;\r\n    totalRewardsEarned[patient] += appointmentCompletionReward;\r\n\r\n    token.rewardForHealthcareAction(patient, appointmentCompletionReward);\r\n    emit RewardIssued(patient, appointmentCompletionReward, 'appointment');\r\n  }\r\n\r\n  /**\r\n   * @dev Issue a regular checkup reward\r\n   */\r\n  function issueCheckupReward(address patient) public onlyPatientManagement {\r\n    require(\r\n      block.timestamp - lastRewardTime[patient] >= CHECKUP_COOLDOWN,\r\n      'Checkup reward cooldown period not met'\r\n    );\r\n\r\n    lastRewardTime[patient] = block.timestamp;\r\n    totalRewardsEarned[patient] += regularCheckupReward;\r\n\r\n    token.rewardForHealthcareAction(patient, regularCheckupReward);\r\n    emit RewardIssued(patient, regularCheckupReward, 'checkup');\r\n  }\r\n\r\n  /**\r\n   * @dev Issue a vaccination reward\r\n   */\r\n  function issueVaccinationReward(address patient) public onlyPatientManagement {\r\n    totalRewardsEarned[patient] += vaccinationReward;\r\n\r\n    token.rewardForHealthcareAction(patient, vaccinationReward);\r\n    emit RewardIssued(patient, vaccinationReward, 'vaccination');\r\n  }\r\n\r\n  /**\r\n   * @dev View total rewards earned by a patient\r\n   */\r\n  function getPatientRewards(address patient) public view returns (uint256) {\r\n    return totalRewardsEarned[patient];\r\n  }\r\n}\r\n",
  "sourcePath": "C:\\Users\\Anjali Patel\\Desktop\\CN6035 FINAL\\HealthCare-dApp (2)\\contracts\\HealthcareToken.sol",
  "compiler": {
    "name": "solc",
    "version": "0.8.16+commit.07a7930e.Emscripten.clang"
  },
  "schemaVersion": "3.4.16",
  "updatedAt": "2025-03-27T14:55:17.869Z",
  "networkType": "ethereum",
  "devdoc": {
    "details": "ERC20 Token implementation for healthcare rewards and payments",
    "kind": "dev",
    "methods": {
      "approve(address,uint256)": {
        "details": "Approve the spender to spend the specified amount of tokens on behalf of the sender"
      },
      "burn(uint256)": {
        "details": "Burn tokens from the caller's account"
      },
      "constructor": {
        "details": "Constructor that gives the deployer all initial tokens"
      },
      "mint(address,uint256)": {
        "details": "Mint tokens to a specified address (only callable by the owner)"
      },
      "rewardForHealthcareAction(address,uint256)": {
        "details": "Reward tokens for specific healthcare actions (can only be called by the Patient Management contract)"
      },
      "setFeeExemption(address,bool)": {
        "details": "Set an address as exempt from fees"
      },
      "setFeesEnabled(bool)": {
        "details": "Enable or disable fees"
      },
      "setPatientManagementContract(address)": {
        "details": "Set the Patient Management contract address"
      },
      "setTransferFeeRate(uint256)": {
        "details": "Set the transfer fee rate (in basis points, 1/100 of a percent) 100 = 1%, 10 = 0.1%, 1 = 0.01%, max 500 (5%)"
      },
      "transfer(address,uint256)": {
        "details": "Transfer tokens from sender to recipient"
      },
      "transferFrom(address,address,uint256)": {
        "details": "Transfer tokens from one address to another"
      },
      "withdrawERC20(address,uint256)": {
        "details": "Withdraw any ERC20 tokens accidentally sent to the contract (only callable by the owner)"
      },
      "withdrawETH()": {
        "details": "Withdraw ETH accidentally sent to the contract (only callable by the owner)"
      }
    },
    "title": "HealthcareToken",
    "version": 1
  },
  "userdoc": {
    "kind": "user",
    "methods": {},
    "version": 1
  }
}