{
  "contractName": "PatientManagement",
  "abi": [
    {
      "inputs": [],
      "stateMutability": "nonpayable",
      "type": "constructor"
    },
    {
      "anonymous": false,
      "inputs": [
        {
          "indexed": true,
          "internalType": "address",
          "name": "adminAddress",
          "type": "address"
        },
        {
          "indexed": false,
          "internalType": "uint256",
          "name": "id",
          "type": "uint256"
        },
        {
          "indexed": false,
          "internalType": "string",
          "name": "name",
          "type": "string"
        },
        {
          "indexed": false,
          "internalType": "uint256",
          "name": "timestamp",
          "type": "uint256"
        }
      ],
      "name": "AdminRegistered",
      "type": "event"
    },
    {
      "anonymous": false,
      "inputs": [
        {
          "indexed": true,
          "internalType": "address",
          "name": "patientAddress",
          "type": "address"
        },
        {
          "indexed": true,
          "internalType": "address",
          "name": "doctorAddress",
          "type": "address"
        },
        {
          "indexed": false,
          "internalType": "string",
          "name": "timeSlot",
          "type": "string"
        },
        {
          "indexed": false,
          "internalType": "uint256",
          "name": "fee",
          "type": "uint256"
        },
        {
          "indexed": false,
          "internalType": "uint256",
          "name": "timestamp",
          "type": "uint256"
        }
      ],
      "name": "AppointmentBooked",
      "type": "event"
    },
    {
      "anonymous": false,
      "inputs": [
        {
          "indexed": true,
          "internalType": "address",
          "name": "patientAddress",
          "type": "address"
        },
        {
          "indexed": true,
          "internalType": "address",
          "name": "doctorAddress",
          "type": "address"
        },
        {
          "indexed": false,
          "internalType": "string",
          "name": "timeSlot",
          "type": "string"
        },
        {
          "indexed": false,
          "internalType": "uint256",
          "name": "timestamp",
          "type": "uint256"
        }
      ],
      "name": "AppointmentCompleted",
      "type": "event"
    },
    {
      "anonymous": false,
      "inputs": [
        {
          "indexed": true,
          "internalType": "address",
          "name": "doctorAddress",
          "type": "address"
        },
        {
          "indexed": false,
          "internalType": "uint256",
          "name": "id",
          "type": "uint256"
        },
        {
          "indexed": false,
          "internalType": "string",
          "name": "name",
          "type": "string"
        },
        {
          "indexed": false,
          "internalType": "string",
          "name": "specialization",
          "type": "string"
        },
        {
          "indexed": false,
          "internalType": "uint256",
          "name": "timestamp",
          "type": "uint256"
        }
      ],
      "name": "DoctorRegistered",
      "type": "event"
    },
    {
      "anonymous": false,
      "inputs": [
        {
          "indexed": true,
          "internalType": "address",
          "name": "patientAddress",
          "type": "address"
        },
        {
          "indexed": false,
          "internalType": "uint256",
          "name": "id",
          "type": "uint256"
        },
        {
          "indexed": false,
          "internalType": "string",
          "name": "name",
          "type": "string"
        },
        {
          "indexed": false,
          "internalType": "uint256",
          "name": "timestamp",
          "type": "uint256"
        }
      ],
      "name": "PatientRegistered",
      "type": "event"
    },
    {
      "anonymous": false,
      "inputs": [
        {
          "indexed": true,
          "internalType": "address",
          "name": "patientAddress",
          "type": "address"
        },
        {
          "indexed": false,
          "internalType": "string",
          "name": "updateField",
          "type": "string"
        },
        {
          "indexed": false,
          "internalType": "uint256",
          "name": "timestamp",
          "type": "uint256"
        }
      ],
      "name": "PatientUpdated",
      "type": "event"
    },
    {
      "inputs": [
        {
          "internalType": "uint256",
          "name": "",
          "type": "uint256"
        }
      ],
      "name": "adminAddresses",
      "outputs": [
        {
          "internalType": "address",
          "name": "",
          "type": "address"
        }
      ],
      "stateMutability": "view",
      "type": "function",
      "constant": true
    },
    {
      "inputs": [],
      "name": "adminCount",
      "outputs": [
        {
          "internalType": "uint256",
          "name": "",
          "type": "uint256"
        }
      ],
      "stateMutability": "view",
      "type": "function",
      "constant": true
    },
    {
      "inputs": [
        {
          "internalType": "address",
          "name": "",
          "type": "address"
        }
      ],
      "name": "admins",
      "outputs": [
        {
          "internalType": "uint256",
          "name": "id",
          "type": "uint256"
        },
        {
          "internalType": "string",
          "name": "name",
          "type": "string"
        },
        {
          "internalType": "uint256",
          "name": "timestamp",
          "type": "uint256"
        },
        {
          "internalType": "bool",
          "name": "active",
          "type": "bool"
        }
      ],
      "stateMutability": "view",
      "type": "function",
      "constant": true
    },
    {
      "inputs": [],
      "name": "appointmentCount",
      "outputs": [
        {
          "internalType": "uint256",
          "name": "",
          "type": "uint256"
        }
      ],
      "stateMutability": "view",
      "type": "function",
      "constant": true
    },
    {
      "inputs": [
        {
          "internalType": "uint256",
          "name": "",
          "type": "uint256"
        }
      ],
      "name": "doctorAddresses",
      "outputs": [
        {
          "internalType": "address",
          "name": "",
          "type": "address"
        }
      ],
      "stateMutability": "view",
      "type": "function",
      "constant": true
    },
    {
      "inputs": [
        {
          "internalType": "address",
          "name": "",
          "type": "address"
        },
        {
          "internalType": "string",
          "name": "",
          "type": "string"
        }
      ],
      "name": "doctorAppointments",
      "outputs": [
        {
          "internalType": "address",
          "name": "patient",
          "type": "address"
        },
        {
          "internalType": "uint256",
          "name": "timestamp",
          "type": "uint256"
        },
        {
          "internalType": "bool",
          "name": "completed",
          "type": "bool"
        },
        {
          "internalType": "string",
          "name": "diagnosis",
          "type": "string"
        },
        {
          "internalType": "string",
          "name": "prescription",
          "type": "string"
        }
      ],
      "stateMutability": "view",
      "type": "function",
      "constant": true
    },
    {
      "inputs": [],
      "name": "doctorCount",
      "outputs": [
        {
          "internalType": "uint256",
          "name": "",
          "type": "uint256"
        }
      ],
      "stateMutability": "view",
      "type": "function",
      "constant": true
    },
    {
      "inputs": [
        {
          "internalType": "address",
          "name": "",
          "type": "address"
        }
      ],
      "name": "doctors",
      "outputs": [
        {
          "internalType": "uint256",
          "name": "id",
          "type": "uint256"
        },
        {
          "internalType": "string",
          "name": "name",
          "type": "string"
        },
        {
          "internalType": "string",
          "name": "specialization",
          "type": "string"
        },
        {
          "internalType": "string",
          "name": "licenseNumber",
          "type": "string"
        },
        {
          "internalType": "bool",
          "name": "verified",
          "type": "bool"
        },
        {
          "internalType": "uint256",
          "name": "appointmentFee",
          "type": "uint256"
        },
        {
          "internalType": "uint256",
          "name": "timestamp",
          "type": "uint256"
        },
        {
          "internalType": "address",
          "name": "doctorAddress",
          "type": "address"
        }
      ],
      "stateMutability": "view",
      "type": "function",
      "constant": true
    },
    {
      "inputs": [
        {
          "internalType": "address",
          "name": "",
          "type": "address"
        },
        {
          "internalType": "uint256",
          "name": "",
          "type": "uint256"
        }
      ],
      "name": "emergencyContacts",
      "outputs": [
        {
          "internalType": "address",
          "name": "",
          "type": "address"
        }
      ],
      "stateMutability": "view",
      "type": "function",
      "constant": true
    },
    {
      "inputs": [
        {
          "internalType": "uint256",
          "name": "",
          "type": "uint256"
        }
      ],
      "name": "patientAddresses",
      "outputs": [
        {
          "internalType": "address",
          "name": "",
          "type": "address"
        }
      ],
      "stateMutability": "view",
      "type": "function",
      "constant": true
    },
    {
      "inputs": [],
      "name": "patientCount",
      "outputs": [
        {
          "internalType": "uint256",
          "name": "",
          "type": "uint256"
        }
      ],
      "stateMutability": "view",
      "type": "function",
      "constant": true
    },
    {
      "inputs": [
        {
          "internalType": "address",
          "name": "",
          "type": "address"
        }
      ],
      "name": "patients",
      "outputs": [
        {
          "internalType": "uint256",
          "name": "id",
          "type": "uint256"
        },
        {
          "internalType": "uint256",
          "name": "age",
          "type": "uint256"
        },
        {
          "internalType": "string",
          "name": "name",
          "type": "string"
        },
        {
          "internalType": "string",
          "name": "gender",
          "type": "string"
        },
        {
          "internalType": "string",
          "name": "district",
          "type": "string"
        },
        {
          "internalType": "enum PatientManagement.VaccineStatus",
          "name": "vaccineStatus",
          "type": "uint8"
        },
        {
          "internalType": "string",
          "name": "symptomsDetails",
          "type": "string"
        },
        {
          "internalType": "enum PatientManagement.PatientSeverity",
          "name": "severity",
          "type": "uint8"
        },
        {
          "internalType": "bool",
          "name": "isDead",
          "type": "bool"
        },
        {
          "internalType": "address",
          "name": "patientAddress",
          "type": "address"
        },
        {
          "internalType": "uint256",
          "name": "lastCheckup",
          "type": "uint256"
        },
        {
          "internalType": "string",
          "name": "bloodGroup",
          "type": "string"
        },
        {
          "internalType": "uint256",
          "name": "timestamp",
          "type": "uint256"
        }
      ],
      "stateMutability": "view",
      "type": "function",
      "constant": true
    },
    {
      "inputs": [
        {
          "internalType": "uint256",
          "name": "",
          "type": "uint256"
        }
      ],
      "name": "timeSlots",
      "outputs": [
        {
          "internalType": "string",
          "name": "",
          "type": "string"
        }
      ],
      "stateMutability": "view",
      "type": "function",
      "constant": true
    },
    {
      "inputs": [
        {
          "internalType": "address",
          "name": "",
          "type": "address"
        }
      ],
      "name": "userType",
      "outputs": [
        {
          "internalType": "uint256",
          "name": "",
          "type": "uint256"
        }
      ],
      "stateMutability": "view",
      "type": "function",
      "constant": true
    },
    {
      "inputs": [
        {
          "internalType": "string",
          "name": "name",
          "type": "string"
        }
      ],
      "name": "registerAdmin",
      "outputs": [],
      "stateMutability": "nonpayable",
      "type": "function"
    },
    {
      "inputs": [
        {
          "internalType": "uint256",
          "name": "age",
          "type": "uint256"
        },
        {
          "internalType": "string",
          "name": "name",
          "type": "string"
        },
        {
          "internalType": "string",
          "name": "gender",
          "type": "string"
        },
        {
          "internalType": "string",
          "name": "district",
          "type": "string"
        },
        {
          "internalType": "string",
          "name": "symptomsDetails",
          "type": "string"
        },
        {
          "internalType": "string",
          "name": "bloodGroup",
          "type": "string"
        }
      ],
      "name": "registerPatient",
      "outputs": [],
      "stateMutability": "nonpayable",
      "type": "function"
    },
    {
      "inputs": [
        {
          "internalType": "string",
          "name": "name",
          "type": "string"
        },
        {
          "internalType": "string",
          "name": "specialization",
          "type": "string"
        },
        {
          "internalType": "string",
          "name": "licenseNumber",
          "type": "string"
        }
      ],
      "name": "registerDoctor",
      "outputs": [],
      "stateMutability": "nonpayable",
      "type": "function"
    },
    {
      "inputs": [
        {
          "internalType": "address",
          "name": "patientAddress",
          "type": "address"
        },
        {
          "internalType": "uint256",
          "name": "vaccineStatusCode",
          "type": "uint256"
        },
        {
          "internalType": "bool",
          "name": "isDead",
          "type": "bool"
        }
      ],
      "name": "updatePatientData",
      "outputs": [],
      "stateMutability": "nonpayable",
      "type": "function"
    },
    {
      "inputs": [
        {
          "internalType": "address",
          "name": "patientAddress",
          "type": "address"
        },
        {
          "internalType": "uint256",
          "name": "severityCode",
          "type": "uint256"
        }
      ],
      "name": "updatePatientSeverity",
      "outputs": [],
      "stateMutability": "nonpayable",
      "type": "function"
    },
    {
      "inputs": [
        {
          "internalType": "address",
          "name": "patientAddress",
          "type": "address"
        },
        {
          "internalType": "string",
          "name": "allergy",
          "type": "string"
        }
      ],
      "name": "addPatientAllergy",
      "outputs": [],
      "stateMutability": "nonpayable",
      "type": "function"
    },
    {
      "inputs": [
        {
          "internalType": "address",
          "name": "patientAddress",
          "type": "address"
        },
        {
          "internalType": "string",
          "name": "medication",
          "type": "string"
        }
      ],
      "name": "addPatientMedication",
      "outputs": [],
      "stateMutability": "nonpayable",
      "type": "function"
    },
    {
      "inputs": [
        {
          "internalType": "address",
          "name": "doctorAddress",
          "type": "address"
        }
      ],
      "name": "verifyDoctor",
      "outputs": [],
      "stateMutability": "nonpayable",
      "type": "function"
    },
    {
      "inputs": [
        {
          "internalType": "uint256",
          "name": "fee",
          "type": "uint256"
        }
      ],
      "name": "setDoctorAppointmentFee",
      "outputs": [],
      "stateMutability": "nonpayable",
      "type": "function"
    },
    {
      "inputs": [
        {
          "internalType": "address",
          "name": "doctorAddress",
          "type": "address"
        },
        {
          "internalType": "address",
          "name": "adminAddress",
          "type": "address"
        },
        {
          "internalType": "string",
          "name": "timeSlot",
          "type": "string"
        }
      ],
      "name": "bookAppointment",
      "outputs": [],
      "stateMutability": "payable",
      "type": "function",
      "payable": true
    },
    {
      "inputs": [
        {
          "internalType": "string",
          "name": "timeSlot",
          "type": "string"
        },
        {
          "internalType": "string",
          "name": "diagnosis",
          "type": "string"
        },
        {
          "internalType": "string",
          "name": "prescription",
          "type": "string"
        }
      ],
      "name": "completeAppointment",
      "outputs": [],
      "stateMutability": "nonpayable",
      "type": "function"
    },
    {
      "inputs": [
        {
          "internalType": "address",
          "name": "doctorAddress",
          "type": "address"
        }
      ],
      "name": "viewAppointmentSchedule",
      "outputs": [
        {
          "internalType": "string[]",
          "name": "",
          "type": "string[]"
        },
        {
          "internalType": "address[]",
          "name": "",
          "type": "address[]"
        },
        {
          "internalType": "bool[]",
          "name": "",
          "type": "bool[]"
        }
      ],
      "stateMutability": "view",
      "type": "function",
      "constant": true
    },
    {
      "inputs": [
        {
          "internalType": "address",
          "name": "doctorAddress",
          "type": "address"
        },
        {
          "internalType": "string",
          "name": "timeSlot",
          "type": "string"
        }
      ],
      "name": "getAppointmentDetails",
      "outputs": [
        {
          "internalType": "address",
          "name": "",
          "type": "address"
        },
        {
          "internalType": "uint256",
          "name": "",
          "type": "uint256"
        },
        {
          "internalType": "bool",
          "name": "",
          "type": "bool"
        },
        {
          "internalType": "string",
          "name": "",
          "type": "string"
        },
        {
          "internalType": "string",
          "name": "",
          "type": "string"
        }
      ],
      "stateMutability": "view",
      "type": "function",
      "constant": true
    },
    {
      "inputs": [
        {
          "internalType": "address",
          "name": "patientAddress",
          "type": "address"
        }
      ],
      "name": "getPatientAllergies",
      "outputs": [
        {
          "internalType": "string[]",
          "name": "",
          "type": "string[]"
        }
      ],
      "stateMutability": "view",
      "type": "function",
      "constant": true
    },
    {
      "inputs": [
        {
          "internalType": "address",
          "name": "patientAddress",
          "type": "address"
        }
      ],
      "name": "getPatientMedications",
      "outputs": [
        {
          "internalType": "string[]",
          "name": "",
          "type": "string[]"
        }
      ],
      "stateMutability": "view",
      "type": "function",
      "constant": true
    },
    {
      "inputs": [
        {
          "internalType": "address",
          "name": "patientAddress",
          "type": "address"
        }
      ],
      "name": "getCovidTrendData",
      "outputs": [
        {
          "internalType": "uint256",
          "name": "",
          "type": "uint256"
        },
        {
          "internalType": "string",
          "name": "",
          "type": "string"
        },
        {
          "internalType": "uint256",
          "name": "",
          "type": "uint256"
        },
        {
          "internalType": "bool",
          "name": "",
          "type": "bool"
        },
        {
          "internalType": "enum PatientManagement.PatientSeverity",
          "name": "",
          "type": "uint8"
        }
      ],
      "stateMutability": "view",
      "type": "function",
      "constant": true
    },
    {
      "inputs": [
        {
          "internalType": "address",
          "name": "contact",
          "type": "address"
        }
      ],
      "name": "addEmergencyContact",
      "outputs": [],
      "stateMutability": "nonpayable",
      "type": "function"
    },
    {
      "inputs": [],
      "name": "getPatientCount",
      "outputs": [
        {
          "internalType": "uint256",
          "name": "",
          "type": "uint256"
        }
      ],
      "stateMutability": "view",
      "type": "function",
      "constant": true
    },
    {
      "inputs": [],
      "name": "getDoctorCount",
      "outputs": [
        {
          "internalType": "uint256",
          "name": "",
          "type": "uint256"
        }
      ],
      "stateMutability": "view",
      "type": "function",
      "constant": true
    },
    {
      "inputs": [
        {
          "internalType": "uint256",
          "name": "index",
          "type": "uint256"
        }
      ],
      "name": "getPatientByIndex",
      "outputs": [
        {
          "internalType": "address",
          "name": "",
          "type": "address"
        }
      ],
      "stateMutability": "view",
      "type": "function",
      "constant": true
    },
    {
      "inputs": [
        {
          "internalType": "uint256",
          "name": "index",
          "type": "uint256"
        }
      ],
      "name": "getDoctorByIndex",
      "outputs": [
        {
          "internalType": "address",
          "name": "",
          "type": "address"
        }
      ],
      "stateMutability": "view",
      "type": "function",
      "constant": true
    }
  ],
  "bytecode": "0x608034620005eb5760c08101906001600160401b039081831181841017620005d557604092835262000030620005f0565b90601180835260209270343a303020504d202d20343a313020504d60781b8482015282526200005e620005f0565b81815270343a313020504d202d20343a323020504d60781b848201528383015262000088620005f0565b81815270343a323020504d202d20343a333020504d60781b8482015285830152620000b2620005f0565b81815270343a333020504d202d20343a343020504d60781b848201526060830152620000dd620005f0565b81815270343a343020504d202d20343a353020504d60781b84820152608083015262000108620005f0565b81815270343a353020504d202d20353a303020504d60781b8482015260a0830152600d549160069283600d5580841062000554575b50600092600d845284842084925b8284106200042557505050508154916000199283811462000412576001809101938483558751946080860186811089821117620003fe578952855262000190620005f0565b908482527021b7b73a3930b1ba102232b83637bcb2b960791b9586888401528781019283528981014281526060820193858552730d2f38cd0f5cb5e52e8701e0378dfa958aa43cf59a8b885260048b528c8820935184558684019151948551918211620003ea5762000203835462000610565b8c601f8211620003ac575b50508b95601f831160011462000330576003968a92918462000324575b505082891b92871b1c19161790555b51600282015501905115159060ff199160ff838354169116179055868352600b86528188842091825416179055600c85528087832055600a5490680100000000000000008210156200031057810180600a55811015620002fc57600a82528482200180546001600160a01b03191686179055548551908152606093810184905292830152608082015242818401527f74e6a337d95c5b7de3c8d5db7dcd734c06d5ffd6eb33c527f8dff80f1331d1149060a090a2516132029081620006678239f35b634e487b7160e01b82526032600452602482fd5b634e487b7160e01b83526041600452602483fd5b0151915038806200022b565b958892918d91601f19841698868d52838d20938d905b8b8210620003825750508460039a106200036a575b50505050811b0190556200023a565b01519060f8848a1b161c19169055388080806200035b565b9193959798999a92968291958886015181550196019301918f928c9694929a999897959362000346565b848b52808b20620003d792601f860160051c8201928610620003df575b601f0160051c01906200064d565b388c6200020e565b9091508190620003c9565b634e487b7160e01b89526041600452602489fd5b634e487b7160e01b85526041600452602485fd5b50602491634e487b7160e01b8252600452fd5b8051805190898211620005405790889162000441855462000610565b90601f9182811162000505575b508391831160011462000499579180600195928695948c926200048d575b5050600019600383901b1c191690841b1785555b019201930192906200014b565b0151905038806200046c565b858a52838a209190601f1984168b5b818110620004ec5750916001969391858897969410620004d2575b505050831b8301855562000480565b015160001960f88460031b161c19169055388080620004c3565b8284015185558d966001909501949384019301620004a8565b6200052f90878c52858c20600585808801821c83019389891062000536575b01901c01906200064d565b386200044e565b9350829362000524565b634e487b7160e01b88526041600452602488fd5b6000600d81528486822092830192015b828110620005745750506200013d565b80620005836001925462000610565b8062000592575b500162000564565b601f908181118414620005ac5750508281555b386200058a565b83620005c7928487528b8720920160051c820191016200064d565b8288812081835555620005a5565b634e487b7160e01b600052604160045260246000fd5b600080fd5b60408051919082016001600160401b03811183821017620005d557604052565b90600182811c9216801562000642575b60208310146200062c57565b634e487b7160e01b600052602260045260246000fd5b91607f169162000620565b81811062000659575050565b600081556001016200064d56fe6080604052600436101561001257600080fd5b60003560e01c80630869cfbc146124f157806310604749146124ad57806320ede3a2146123235780632b7832b3146123055780632f80123f1461220f57806332bd1efc1461200e5780633ba51e7c14611fb3578063429b62e514611f3b5780634c693a6314611e905780635090a1d614611ad457806350c7a9121461183d578063513728ff146116de57806355045c821461143157806357ea0c2f146113b35780635a357c191461133557806365a5a9981461126457806368eb186b1461113a5780636ffdfed2146110e157806378522bc4146110c357806379111c1c146110c35780638654c14314610fbc57806386e1c04f14610f57578063a0303c4114610d7a578063a9583c2214610e88578063b40f169114610e2d578063b83458b014610df3578063ba44eecf14610d98578063c190665b14610d7a578063d7f9238d14610c28578063d80cb05c14610ade578063dc5b1524146109d7578063ece7f6251461036e578063ed0fea34146102e7578063edee044c146101c05763eebc3fb21461019d57600080fd5b346101bb5760003660031901126101bb576020600354604051908152f35b600080fd5b346101bb576101ce3661282d565b9033600052602090600c82526101eb600160406000205414612bda565b336000526004825261020760ff60036040600020015416612c32565b60018060a01b03169182600052600c8252610229600360406000205414612c7e565b8051156102a2576000805160206131ad8339815191529161027b608092856000526005835261026660ff60076040600020015460081c1615612cd6565b8560005260058352600a604060002001612d22565b60405190604082526007604083015266616c6c6572677960c81b60608301524290820152a2005b60405162461bcd60e51b815260048101839052601760248201527f416c6c657267792063616e6e6f7420626520656d7074790000000000000000006044820152606490fd5b346101bb5760206103266102fa3661282d565b60018060a09593951b03809416600052600782526040600020826040519483868095519384920161276e565b8201908152030190209081541661036a60018301549260ff6002820154169061035d6004610356600384016126c8565b92016126c8565b9160405195869586612870565b0390f35b346101bb5760c03660031901126101bb5760043567ffffffffffffffff6024358181116101bb576103a39036906004016127d6565b91604480358381116101bb576103bd9036906004016127d6565b60649081358581116101bb576103d79036906004016127d6565b906084358681116101bb576103f09036906004016127d6565b9260a4358781116101bb576104099036906004016127d6565b9433600052600b60205261042560ff60406000205416156129b8565b61043189511515612a04565b86156109965782511561095c5783511561091b578451156108da57855115610899575050610460600154612a47565b948560015560405195602087018781108982111761074b5760405260008752604051976101e08901908982109082111761074b576040528752602087015286604087015260608601526080850152600060a085015260c0840152600060e084015260006101008401523361012084015242610140840152610160830152806101808301526101a0820152426101c0820152336000526005602052604060002090805182556020810151600183015561051f604082015160028401612a83565b610530606082015160038401612a83565b610541608082015160048401612a83565b61055b60a0820151610552816127b6565b60058401612bc2565b61056c60c082015160068401612a83565b6007820161058760e0830151610581816127b6565b82612bc2565b610100820151815461ff00191690151560081b61ff0016178155610120820151815462010000600160b01b03191660109190911b62010000600160b01b031617905561014081015160088301556101608101516105e79060098401612a83565b610180810151805190600160401b821161074b57600a84015482600a86015580831061081a575b50602001600a840160005260206000206000915b8383106107fd57505050506101a0810151805190600160401b821161074b57600b84015482600b86015580831061077e575b50602001600b840160005260206000206000915b838310610761578686600c6101c088015191015533600052600b6020526040600020600160ff19825416179055600c6020526003604060002055600854600160401b81101561074b5760018101806008558110156107355760086000527ff3f7a9fe364faab93b216da50a3214154f22a0a2b415b23a84c8169e8b636ee301336001600160601b0360a01b8254161790557f9f3b248cef47d79d145479492aaa88ba48cd601ff61995d8c51dfdbea1d37fee6107306001546040519182913395429184612b88565b0390a2005b634e487b7160e01b600052603260045260246000fd5b634e487b7160e01b600052604160045260246000fd5b600160208261077283945186612a83565b01920192019190610668565b600b85016000526020600020908382015b818301811061079f575050610654565b806107ac60019254612650565b806107b9575b500161078f565b601f9081811184146107d2575050600081555b896107b2565b836107ee92846000526020600020920160051c82019101612a6c565b600060208120818355556107cc565b600160208261080e83945186612a83565b01920192019190610622565b600a85016000526020600020908382015b818301811061083b57505061060e565b8061084860019254612650565b80610855575b500161082b565b601f90818111841461086e575050600081555b8961084e565b8361088a92846000526020600020920160051c82019101612a6c565b60006020812081835555610868565b7f426c6f6f642067726f75702063616e6e6f7420626520656d70747900000000006040519162461bcd60e51b835260206004840152601b6024840152820152fd5b7f53796d70746f6d732064657461696c732063616e6e6f7420626520656d7074796040519162461bcd60e51b83526020600484015260206024840152820152fd5b7f44697374726963742063616e6e6f7420626520656d70747900000000000000006040519162461bcd60e51b83526020600484015260186024840152820152fd5b7547656e6465722063616e6e6f7420626520656d70747960501b6040519162461bcd60e51b83526020600484015260166024840152820152fd5b7f416765206d7573742062652067726561746572207468616e20300000000000006040519162461bcd60e51b835260206004840152601a6024840152820152fd5b346101bb576020806003193601126101bb576109f161263a565b33600052600b8252610a0a60ff60406000205416612f85565b60018060a01b03169081600052600c8152610a2c6003604060002054146130d2565b33600052600c815260019182604060002054148015610acf575b8015610ac6575b610a5690613114565b60005260058152600a604060002001918254610a7181612baa565b93610a7f60405195866126a6565b8185526000908152838120848087015b848410610aa9576040518281528061036a8185018b61295c565b85918291610ab6856126c8565b8152019201920191908590610a8f565b50338114610a4d565b50600260406000205414610a46565b346101bb576020806003193601126101bb57610af861263a565b33600052600c8252610b11600160406000205414612bda565b3360005260048252610b2d60ff60036040600020015416612c32565b6001600160a01b03166000818152600c8352604090205490919060011901610bd9577ff153ed9454b823ea4e1c0bd5fe4260a3451b672d3129e9ae76848dbe3dae04aa9082600052600681526004604060002001600160ff19825416179055604060002054610bce6001604060002001610bc0600260406000200191608060405196879687528601526080850190612d65565b908382036040850152612d65565b4260608301520390a2005b6084906040519062461bcd60e51b82526004820152602260248201527f41646472657373206973206e6f742061207265676973746572656420646f637460448201526137b960f11b6064820152fd5b346101bb5760403660031901126101bb57610c4161263a565b6024359033600052602090600c8252610c61600160406000205414612bda565b3360005260048252610c7d60ff60036040600020015416612c32565b60018060a01b03169182600052600c8252610c9f600360406000205414612c7e565b60038111610d35576000805160206131ad83398151915291610cfb6080928560005260058352610cdd60ff60076040600020015460081c1615612cd6565b610ce6816127b6565b85600052600583526007604060002001612bc2565b83600052600581524260086040600020015560405190604082526008604083015267736576657269747960c01b60608301524290820152a2005b60405162461bcd60e51b815260048101839052601760248201527f496e76616c6964207365766572697479207374617475730000000000000000006044820152606490fd5b346101bb5760003660031901126101bb576020600154604051908152f35b346101bb5760203660031901126101bb57600435600a548110156101bb57600a6000527fc65a7bb8d6351c1cf70c95a316cc6a92839c986682d98bc35f958f4883f9d2a801546040516001600160a01b039091168152602090f35b346101bb5760203660031901126101bb576001600160a01b03610e1461263a565b16600052600c6020526020604060002054604051908152f35b346101bb5760203660031901126101bb576004356008548110156101bb5760086000527ff3f7a9fe364faab93b216da50a3214154f22a0a2b415b23a84c8169e8b636ee301546040516001600160a01b039091168152602090f35b346101bb5760203660031901126101bb576001600160a01b0380610eaa61263a565b166000526006602052604060002090815490610ec8600184016126c8565b92610ed5600282016126c8565b90610ee2600382016126c8565b92610f3c60ff60048401541694610f2e600585015493600760068701549601541695610f206040519a8b9a8b526101008060208d01528b0190612791565b9089820360408b0152612791565b908782036060890152612791565b931515608086015260a085015260c084015260e08301520390f35b346101bb5760203660031901126101bb57600435600d548110156101bb57610fa861036a91600d6000527fd7b6990105719101dabeb77144f2a3385c8033acd3af97e9423a695e81ad1eb5016126c8565b604051918291602083526020830190612791565b346101bb576020806003193601126101bb57610fd661263a565b33600052600b8252610fef60ff60406000205416612f85565b60018060a01b03169081600052600c81526110116003604060002054146130d2565b33600052600c8152600191826040600020541480156110b4575b80156110ab575b61103b90613114565b60005260058152600b60406000200191825461105681612baa565b9361106460405195866126a6565b8185526000908152838120848087015b84841061108e576040518281528061036a8185018b61295c565b8591829161109b856126c8565b8152019201920191908590611074565b50338114611032565b5060026040600020541461102b565b346101bb5760003660031901126101bb576020600254604051908152f35b346101bb5760403660031901126101bb576110fa61263a565b6024359060018060a01b03809116600052600e602052604060002080548310156101bb5760209261112a916128e8565b9190546040519260031b1c168152f35b346101bb576111483661282d565b9033600052602090600c8252611165600160406000205414612bda565b336000526004825261118160ff60036040600020015416612c32565b60018060a01b03169182600052600c82526111a3600360406000205414612c7e565b80511561121f576000805160206131ad833981519152916111f560809285600052600583526111e060ff60076040600020015460081c1615612cd6565b8560005260058352600b604060002001612d22565b6040519060408252600a60408301526936b2b234b1b0ba34b7b760b11b60608301524290820152a2005b60405162461bcd60e51b815260048101839052601a60248201527f4d656469636174696f6e2063616e6e6f7420626520656d7074790000000000006044820152606490fd5b346101bb5760203660031901126101bb5761127d61263a565b33600052600b60205261129760ff60406000205416612f85565b6001600160a01b03166000818152600c60205260409020546112bb906003146130d2565b60005260056020526040600020600181015460ff6005830154166112de816127b6565b60078301549260ff6112f5600482871693016126c8565b94611312604051968796875260a0602088015260a0870190612791565b93604086015260081c161515606084015261132c816127b6565b60808301520390f35b346101bb5760203660031901126101bb5760043533600052600b60205261136360ff60406000205416612f85565b600954811061137181613170565b156107355760096000527f6e1540171b6c0c960b71a7020d9f60077f6af931a8bbf590da0223dacf75c7af01546040516001600160a01b039091168152602090f35b346101bb5760203660031901126101bb5760043533600052600b6020526113e160ff60406000205416612f85565b60085481106113ef81613170565b156107355760086000527ff3f7a9fe364faab93b216da50a3214154f22a0a2b415b23a84c8169e8b636ee301546040516001600160a01b039091168152602090f35b346101bb5760203660031901126101bb5761144a61263a565b33600052600b60205261146460ff60406000205416612f85565b6001600160a01b0381166000908152600c602052604090205461148990600214612ef9565b600d549061149682612baa565b916114a460405193846126a6565b808352601f1991826114b583612baa565b0160005b8181106116cd5750506114cb82612baa565b6114d860405191826126a6565b8281526114e483612baa565b92846020830194013685376114f881612baa565b9261150660405194856126a6565b81845261151282612baa565b60208501960136873760005b8281106115c1576115438888888888602060405196879660608852606088019061295c565b9186830382880152519182815201929060005b81811061159f575050506020908483036040860152519182815201919060005b818110611584575050500390f35b82511515845285945060209384019390920191600101611576565b82516001600160a01b0316855287965060209485019490920191600101611556565b6115d36115cd826128b1565b506126c8565b6115dd828a612fca565b526115e88189612fca565b506001600160a01b038216600090815260076020526040902061160a826128b1565b506040519160009180549061161e82612650565b91600181169081156116b5575060011461167d575b5050815281900360200190208054611678929160ff91600291906001600160a01b0316611660858a612fca565b5201541661166e8288612fca565b9015159052612a47565b61151e565b9091925060005260206000206000905b8282106116a1575050820190826020611633565b60018160209254848801520191019061168d565b60ff1916865250508015150283019150826020611633565b8060606020809389010152016114b9565b346101bb576116ec36612900565b919033600052602092600c845261170a600260406000205414612dfb565b336000526006845261172660ff60046040600020015416612e53565b3360005260078452604060002084604051809286516117488184868b0161276e565b8201908152030190209060018060a01b0392611768848454161515612f3a565b60028301805460ff81166117f85760ff191660011790557f6472e0677b5adbb50547e7ad2a9645e2ddfe667a1e2b7d6837c83f3ca0a79c879392916117bd916117b49060038501612a83565b60048301612a83565b8181541660005260058552426008604060002001555416916117ea60405191604083526040830190612791565b9342908201528033940390a3005b60405162461bcd60e51b815260048101899052601d60248201527f4170706f696e746d656e7420616c726561647920636f6d706c657465640000006044820152606490fd5b346101bb5761184b36612900565b91909133600052602092600b845261186b60ff60406000205416156129b8565b61187783511515612a04565b805115611a8f57815115611a4a57611890600254612a47565b918260025560405161010081019181831067ffffffffffffffff84111761074b57869460079360405282528482019086825261194c60408401918683526060850190815261193460808601916000835261192a60a0880195662386f26fc10000875261192060c08a0198428a52600660e08c019e8f339052336000525260406000209a518b555160018b01612a83565b5160028901612a83565b5160038701612a83565b511515600485019060ff801983541691151516179055565b516005830155516006820155019160018060a01b03905116916001600160601b0360a01b928382541617905533600052600b84526040600020600160ff19825416179055600c84526002604060002055600954600160401b81101561074b576001810180600955811015610735577ff153ed9454b823ea4e1c0bd5fe4260a3451b672d3129e9ae76848dbe3dae04aa93611a3b93611a2d9260096000527f6e1540171b6c0c960b71a7020d9f60077f6af931a8bbf590da0223dacf75c7af019033908254161790556080600254966040519788528701526080860190612791565b908482036040860152612791565b914260608201528033930390a2005b60405162461bcd60e51b815260048101859052601e60248201527f4c6963656e7365206e756d6265722063616e6e6f7420626520656d70747900006044820152606490fd5b60405162461bcd60e51b815260048101859052601e60248201527f5370656369616c697a6174696f6e2063616e6e6f7420626520656d70747900006044820152606490fd5b60603660031901126101bb57611ae861263a565b6001600160a01b039060248035838116908190036101bb57604491823567ffffffffffffffff81116101bb57611b229036906004016127d6565b923360005285602095600c8752611b40600360406000205414612e9f565b169586600052600c8652611b5b600260406000205414612ef9565b866000526006865260ff6004604060002001541615611e545783600052600c86526001918260406000205403611e1e5787600052600687526005604060002001543410611dd057336000526005875260ff60076040600020015460081c16611d7b57600080600d54898901925b818110611d30575b505015611cf95787611bfa918a600052600782526040600020604051809481938c5192839161276e565b820190815203019020938454928316611cb75750506001600160a01b031916331782554290820155600201805460ff19169055600354600091829182918291611c4290612a47565b60035581903415611cad575b3491f115611ca1577f95aecf3a5b506da06de5b2a2f7832cc593404b29cd3f2025fc233c70b7c7885c90611c8d60405191606083526060830190612791565b9234908201524260408201528033930390a3005b6040513d6000823e3d90fd5b6108fc9150611c4e565b7f54696d6520736c6f7420616c726561647920626f6f6b6564000000000000000060649260188a936040519462461bcd60e51b86526004860152840152820152fd5b60405162461bcd60e51b81526004810189905260118187015270125b9d985b1a59081d1a5b59481cdb1bdd607a1b81840152606490fd5b611d4c611d53611d3f836128b1565b5060405192838092612d65565b03826126a6565b8b81519101208a51852014611d7057611d6b90612a47565b611bc8565b505050838a80611bd0565b867f44656365617365642070617469656e74732063616e6e6f7420626f6f6b206170608492602a876040519462461bcd60e51b8652600486015284015282015269706f696e746d656e747360b01b6064820152fd5b867f496e73756666696369656e74207061796d656e7420666f72206170706f696e74608492866040519362461bcd60e51b8552600485015280840152820152631b595b9d60e21b6064820152fd5b86702737ba1030903b30b634b21030b236b4b760791b6064926011876040519462461bcd60e51b86526004860152840152820152fd5b60405162461bcd60e51b81526004810187905260168185015275111bd8dd1bdc881a5cc81b9bdd081d995c9a599a595960521b81840152606490fd5b346101bb5760203660031901126101bb5760043533600052600c602052611ebe600260406000205414612dfb565b336000526006602052611edb60ff60046040600020015416612e53565b8015611ef65733600090815260066020526040902060050155005b60405162461bcd60e51b815260206004820152601a60248201527f466565206d7573742062652067726561746572207468616e20300000000000006044820152606490fd5b346101bb5760203660031901126101bb576001600160a01b03611f5c61263a565b16600052600460205260406000208054611f78600183016126c8565b9160ff6003600283015492015416611fa26040519485948552608060208601526080850190612791565b916040840152151560608301520390f35b346101bb5760203660031901126101bb576004356009548110156101bb5760096000527f6e1540171b6c0c960b71a7020d9f60077f6af931a8bbf590da0223dacf75c7af01546040516001600160a01b039091168152602090f35b346101bb5760603660031901126101bb5761202761263a565b6024359060443590811591821581036101bb5733600052602091600c8352612056600160406000205414612bda565b336000526004835261207260ff60036040600020015416612c32565b60018060a01b03169283600052600c8352612094600360406000205414612c7e565b600385116121d15783600052600583526040600020600781019160ff835460081c1690816121c9575b50612175578560056120db926120d5608098996127b6565b01612bc2565b8160ff825460081c161561215a575b50508360405160408152600d60408201526c76616363696e6553746174757360981b606082015242848201526000805160206131ad833981519152948591a261212f57005b60809060405190604082526008604083015267191958d9585cd95960c21b60608301524290820152a2005b815461ff00191690151560081b61ff001617905584816120ea565b60405162461bcd60e51b815260048101859052602660248201527f446561642070617469656e742063616e6e6f74206265206d61726b656420617360448201526520616c69766560d01b6064820152608490fd5b9050876120bd565b60405162461bcd60e51b8152600481018490526016602482015275496e76616c69642076616363696e652073746174757360501b6044820152606490fd5b346101bb5760203660031901126101bb5761222861263a565b33600052600c602052612242600360406000205414612e9f565b6001600160a01b039081166000818152600b602052604090205460ff16156122ac5733600052600e60205260406000208054600160401b81101561074b5761228f916001820181556128e8565b909283549160031b90811b9283911b169119161790556000604051f35b60405162461bcd60e51b815260206004820152602b60248201527f456d657267656e637920636f6e74616374206d7573742062652061207265676960448201526a39ba32b932b2103ab9b2b960a91b6064820152608490fd5b346101bb5760003660031901126101bb576020600054604051908152f35b346101bb576020806003193601126101bb5767ffffffffffffffff6004358181116101bb576123569036906004016127d6565b9133600052600b815261237160ff60406000205416156129b8565b61237d83511515612a04565b612388600054612a47565b918260005560405160808101918183109083111761074b57600c936123fe9260405281526003838201868152604083014281526123e260608501926001845233600052600488526040600020955186555160018601612a83565b51600284015551151591019060ff801983541691151516179055565b33600052600b81526040600020600160ff19825416179055526001604060002055600a54600160401b81101561074b576001810180600a5581101561073557600a6000527fc65a7bb8d6351c1cf70c95a316cc6a92839c986682d98bc35f958f4883f9d2a801336001600160601b0360a01b8254161790557f74e6a337d95c5b7de3c8d5db7dcd734c06d5ffd6eb33c527f8dff80f1331d1146107306000546040519182913395429184612b88565b346101bb5761036a6124e16124c13661282d565b9033600052600b6020526124dc60ff60406000205416612f85565b612fde565b9160409593955195869586612870565b346101bb5760203660031901126101bb576001600160a01b038061251361263a565b16600052600560205260406000209081549060018301549260028101612538906126c8565b91612545600383016126c8565b612551600484016126c8565b91600584015460ff1660068501612567906126c8565b60078601549160ff83169560088801549560098901612585906126c8565b98600c0154996040519c8d9c8d5260208d01528b6101a06040819201528c016125ad91612791565b8b810360608d01526125be91612791565b8a810360808c01526125cf91612791565b906125d9816127b6565b60a08a015288810360c08a01526125ef91612791565b936125f9816127b6565b60e08801528060081c60ff16151561010088015260101c1661012086015261014085015283810361016085015261262f91612791565b906101808301520390f35b600435906001600160a01b03821682036101bb57565b90600182811c92168015612680575b602083101461266a57565b634e487b7160e01b600052602260045260246000fd5b91607f169161265f565b6020810190811067ffffffffffffffff82111761074b57604052565b90601f8019910116810190811067ffffffffffffffff82111761074b57604052565b90604051918260008254926126dc84612650565b90818452600194858116908160001461274b5750600114612708575b5050612706925003836126a6565b565b9093915060005260209081600020936000915b818310612733575050612706935082010138806126f8565b8554888401850152948501948794509183019161271b565b91505061270694506020925060ff191682840152151560051b82010138806126f8565b60005b8381106127815750506000910152565b8181015183820152602001612771565b906020916127aa8151809281855285808601910161276e565b601f01601f1916010190565b600411156127c057565b634e487b7160e01b600052602160045260246000fd5b81601f820112156101bb5780359067ffffffffffffffff821161074b576040519261280b601f8401601f1916602001856126a6565b828452602083830101116101bb57816000926020809301838601378301015290565b9060406003198301126101bb576004356001600160a01b03811681036101bb57916024359067ffffffffffffffff82116101bb5761286d916004016127d6565b90565b9390926128a39261286d969460018060a01b0316865260208601521515604085015260a0606085015260a0840190612791565b916080818403910152612791565b600d5481101561073557600d6000527fd7b6990105719101dabeb77144f2a3385c8033acd3af97e9423a695e81ad1eb50190600090565b80548210156107355760005260206000200190600090565b60606003198201126101bb5767ffffffffffffffff916004358381116101bb578261292d916004016127d6565b926024358181116101bb5783612945916004016127d6565b926044359182116101bb5761286d916004016127d6565b908082519081815260208091019281808460051b8301019501936000915b84831061298a5750505050505090565b90919293949584806129a8600193601f198682030187528a51612791565b980193019301919493929061297a565b156129bf57565b60405162461bcd60e51b815260206004820152601a60248201527f596f752061726520616c726561647920726567697374657265640000000000006044820152606490fd5b15612a0b57565b60405162461bcd60e51b81526020600482015260146024820152734e616d652063616e6e6f7420626520656d70747960601b6044820152606490fd5b6000198114612a565760010190565b634e487b7160e01b600052601160045260246000fd5b818110612a77575050565b60008155600101612a6c565b919091825167ffffffffffffffff811161074b57612aa18254612650565b601f8111612b4b575b50602080601f8311600114612ae7575081929394600092612adc575b50508160011b916000199060031b1c1916179055565b015190503880612ac6565b90601f198316958460005282600020926000905b888210612b3357505083600195969710612b1a575b505050811b019055565b015160001960f88460031b161c19169055388080612b10565b80600185968294968601518155019501930190612afb565b612b7890836000526020600020601f840160051c81019160208510612b7e575b601f0160051c0190612a6c565b38612aaa565b9091508190612b6b565b939291612ba5906040928652606060208701526060860190612791565b930152565b67ffffffffffffffff811161074b5760051b60200190565b90612bcc816127b6565b60ff80198354169116179055565b15612be157565b60405162461bcd60e51b815260206004820152602360248201527f4f6e6c792061646d696e732063616e20706572666f726d20746869732061637460448201526234b7b760e91b6064820152608490fd5b15612c3957565b60405162461bcd60e51b815260206004820152601b60248201527f41646d696e206163636f756e74206973206e6f742061637469766500000000006044820152606490fd5b15612c8557565b60405162461bcd60e51b815260206004820152602360248201527f41646472657373206973206e6f74206120726567697374657265642070617469604482015262195b9d60ea1b6064820152608490fd5b15612cdd57565b60405162461bcd60e51b815260206004820152601e60248201527f43616e6e6f74207570646174652064656365617365642070617469656e7400006044820152606490fd5b8054600160401b81101561074b57612d3f916001820181556128e8565b919091612d4f5761270691612a83565b634e487b7160e01b600052600060045260246000fd5b9060009291805491612d7683612650565b918282526001938481169081600014612dd85750600114612d98575b50505050565b90919394506000526020928360002092846000945b838610612dc4575050505001019038808080612d92565b805485870183015294019385908201612dad565b9294505050602093945060ff191683830152151560051b01019038808080612d92565b15612e0257565b60405162461bcd60e51b8152602060048201526024808201527f4f6e6c7920646f63746f72732063616e20706572666f726d20746869732061636044820152633a34b7b760e11b6064820152608490fd5b15612e5a57565b60405162461bcd60e51b815260206004820152601e60248201527f446f63746f72206163636f756e74206973206e6f7420766572696669656400006044820152606490fd5b15612ea657565b60405162461bcd60e51b815260206004820152602560248201527f4f6e6c792070617469656e74732063616e20706572666f726d2074686973206160448201526431ba34b7b760d91b6064820152608490fd5b15612f0057565b60405162461bcd60e51b81526020600482015260126024820152712737ba1030903b30b634b2103237b1ba37b960711b6044820152606490fd5b15612f4157565b606460405162461bcd60e51b815260206004820152602060248201527f4e6f206170706f696e746d656e7420696e20746869732074696d6520736c6f746044820152fd5b15612f8c57565b60405162461bcd60e51b8152602060048201526016602482015275165bdd481b5d5cdd081899481c9959da5cdd195c995960521b6044820152606490fd5b80518210156107355760209160051b010190565b9160018060a01b0380931691600090838252600c602052613028602060409261300c60028587205414612ef9565b868552600782528385208285519483868095519384920161276e565b8201908152030190209485541693613041851515612f3a565b331415806130bc575b806130b2575b61308057505060018301549260ff6002820154169293929161286d6004613079600385016126c8565b93016126c8565b909160ff600260018701549601541693949392825161309e8161268a565b8181529251906130ad8261268a565b815290565b5083331415613050565b50338252600c602052600181832054141561304a565b156130d957565b60405162461bcd60e51b8152602060048201526013602482015272139bdd0818481d985b1a59081c185d1a595b9d606a1b6044820152606490fd5b1561311b57565b60405162461bcd60e51b815260206004820152602760248201527f4e6f7420617574686f72697a656420746f2076696577207468697320696e666f6044820152663936b0ba34b7b760c91b6064820152608490fd5b1561317757565b60405162461bcd60e51b815260206004820152600d60248201526c092dcecc2d8d2c840d2dcc8caf609b1b6044820152606490fdfe474cca1c43e391565f581648e6e8c3b04e9cfb6061f572912446ffd86cb9b79ea2646970667358221220c78e98cef7794669a7e2e6388b3dcf1d67d385290a7aa3f7ab809346ce258b2c64736f6c63430008100033",
  "immutableReferences": {},
  "source": "// SPDX-License-Identifier: MIT\r\npragma solidity ^0.8.0;\r\n\r\n/**\r\n * @title PatientManagement\r\n * @dev A system for managing patient records, appointments, and healthcare data on blockchain\r\n */\r\ncontract PatientManagement {\r\n  // Enum for vaccine status to replace string-based comparisons\r\n  enum VaccineStatus {\r\n    NOT_VACCINATED,\r\n    ONE_DOSE,\r\n    TWO_DOSE,\r\n    BOOSTER\r\n  }\r\n\r\n  // Enum for patient severity status\r\n  enum PatientSeverity {\r\n    MILD,\r\n    MODERATE,\r\n    SEVERE,\r\n    CRITICAL\r\n  }\r\n\r\n  struct Admin {\r\n    uint id;\r\n    string name;\r\n    uint timestamp;\r\n    bool active;\r\n  }\r\n\r\n  struct Patient {\r\n    uint id;\r\n    uint age;\r\n    string name;\r\n    string gender;\r\n    string district;\r\n    VaccineStatus vaccineStatus;\r\n    string symptomsDetails;\r\n    PatientSeverity severity;\r\n    bool isDead;\r\n    address patientAddress;\r\n    uint lastCheckup;\r\n    string bloodGroup;\r\n    string[] allergies;\r\n    string[] medications;\r\n    uint timestamp;\r\n  }\r\n\r\n  struct Doctor {\r\n    uint id;\r\n    string name;\r\n    string specialization;\r\n    string licenseNumber;\r\n    bool verified;\r\n    uint appointmentFee;\r\n    uint timestamp;\r\n    address doctorAddress;\r\n  }\r\n\r\n  struct Appointment {\r\n    address patient;\r\n    uint timestamp;\r\n    bool completed;\r\n    string diagnosis;\r\n    string prescription;\r\n  }\r\n\r\n  struct DistrictData {\r\n    string districtName;\r\n    uint childrenCount;\r\n    uint teenageCount;\r\n    uint youngCount;\r\n    uint elderCount;\r\n    uint childrenPercent;\r\n    uint teenagePercent;\r\n    uint youngPercent;\r\n    uint elderPercent;\r\n    uint totalPatients;\r\n    uint medianAge;\r\n  }\r\n\r\n  uint public adminCount;\r\n  uint public patientCount;\r\n  uint public doctorCount;\r\n  uint public appointmentCount;\r\n\r\n  mapping(address => Admin) public admins;\r\n  mapping(address => Patient) public patients;\r\n  mapping(address => Doctor) public doctors;\r\n  mapping(address => mapping(string => Appointment)) public doctorAppointments;\r\n\r\n  address[] public patientAddresses;\r\n  address[] public doctorAddresses;\r\n  address[] public adminAddresses;\r\n\r\n  mapping(address => bool) private registeredUsers;\r\n  mapping(address => uint) public userType; // 1 = admin, 2 = doctor, 3 = patient\r\n\r\n  string[] public timeSlots = [\r\n    '4:00 PM - 4:10 PM',\r\n    '4:10 PM - 4:20 PM',\r\n    '4:20 PM - 4:30 PM',\r\n    '4:30 PM - 4:40 PM',\r\n    '4:40 PM - 4:50 PM',\r\n    '4:50 PM - 5:00 PM'\r\n  ];\r\n\r\n  // Emergency contacts for patients\r\n  mapping(address => address[]) public emergencyContacts;\r\n\r\n  // Events for logging actions\r\n  event AdminRegistered(address indexed adminAddress, uint id, string name, uint timestamp);\r\n  event DoctorRegistered(\r\n    address indexed doctorAddress,\r\n    uint id,\r\n    string name,\r\n    string specialization,\r\n    uint timestamp\r\n  );\r\n  event PatientRegistered(address indexed patientAddress, uint id, string name, uint timestamp);\r\n  event PatientUpdated(address indexed patientAddress, string updateField, uint timestamp);\r\n  event AppointmentBooked(\r\n    address indexed patientAddress,\r\n    address indexed doctorAddress,\r\n    string timeSlot,\r\n    uint fee,\r\n    uint timestamp\r\n  );\r\n  event AppointmentCompleted(\r\n    address indexed patientAddress,\r\n    address indexed doctorAddress,\r\n    string timeSlot,\r\n    uint timestamp\r\n  );\r\n\r\n  modifier onlyAdmin() {\r\n    require(userType[msg.sender] == 1, 'Only admins can perform this action');\r\n    require(admins[msg.sender].active, 'Admin account is not active');\r\n    _;\r\n  }\r\n\r\n  modifier onlyDoctor() {\r\n    require(userType[msg.sender] == 2, 'Only doctors can perform this action');\r\n    require(doctors[msg.sender].verified, 'Doctor account is not verified');\r\n    _;\r\n  }\r\n\r\n  modifier onlyPatient() {\r\n    require(userType[msg.sender] == 3, 'Only patients can perform this action');\r\n    _;\r\n  }\r\n\r\n  modifier onlyRegisteredUser() {\r\n    require(registeredUsers[msg.sender], 'You must be registered');\r\n    _;\r\n  }\r\n\r\n  constructor() {\r\n    address hardcodedAdmin = 0x0D2f38cD0F5CB5E52e8701e0378Dfa958AA43cf5;\r\n    adminCount++;\r\n    admins[hardcodedAdmin] = Admin({\r\n      id: adminCount,\r\n      name: 'Contract Deployer',\r\n      timestamp: block.timestamp,\r\n      active: true\r\n    });\r\n    registeredUsers[hardcodedAdmin] = true;\r\n    userType[hardcodedAdmin] = 1;\r\n    adminAddresses.push(hardcodedAdmin);\r\n\r\n    emit AdminRegistered(hardcodedAdmin, adminCount, 'Contract Deployer', block.timestamp);\r\n  }\r\n\r\n  function registerAdmin(string memory name) public {\r\n    require(!registeredUsers[msg.sender], 'You are already registered');\r\n    require(bytes(name).length > 0, 'Name cannot be empty');\r\n\r\n    adminCount++;\r\n    admins[msg.sender] = Admin({\r\n      id: adminCount,\r\n      name: name,\r\n      timestamp: block.timestamp,\r\n      active: true\r\n    });\r\n    registeredUsers[msg.sender] = true;\r\n    userType[msg.sender] = 1;\r\n    adminAddresses.push(msg.sender);\r\n\r\n    emit AdminRegistered(msg.sender, adminCount, name, block.timestamp);\r\n  }\r\n\r\n  function registerPatient(\r\n    uint age,\r\n    string memory name,\r\n    string memory gender,\r\n    string memory district,\r\n    string memory symptomsDetails,\r\n    string memory bloodGroup\r\n  ) public {\r\n    require(!registeredUsers[msg.sender], 'You are already registered');\r\n    require(bytes(name).length > 0, 'Name cannot be empty');\r\n    require(age > 0, 'Age must be greater than 0');\r\n    require(bytes(gender).length > 0, 'Gender cannot be empty');\r\n    require(bytes(district).length > 0, 'District cannot be empty');\r\n    require(bytes(symptomsDetails).length > 0, 'Symptoms details cannot be empty');\r\n    require(bytes(bloodGroup).length > 0, 'Blood group cannot be empty');\r\n\r\n    patientCount++;\r\n\r\n    string[] memory emptyStringArray = new string[](0);\r\n\r\n    patients[msg.sender] = Patient({\r\n      id: patientCount,\r\n      name: name,\r\n      age: age,\r\n      gender: gender,\r\n      district: district,\r\n      vaccineStatus: VaccineStatus.NOT_VACCINATED,\r\n      symptomsDetails: symptomsDetails,\r\n      severity: PatientSeverity.MILD,\r\n      isDead: false,\r\n      patientAddress: msg.sender,\r\n      lastCheckup: block.timestamp,\r\n      bloodGroup: bloodGroup,\r\n      allergies: emptyStringArray,\r\n      medications: emptyStringArray,\r\n      timestamp: block.timestamp\r\n    });\r\n\r\n    registeredUsers[msg.sender] = true;\r\n    userType[msg.sender] = 3;\r\n    patientAddresses.push(msg.sender);\r\n\r\n    emit PatientRegistered(msg.sender, patientCount, name, block.timestamp);\r\n  }\r\n  \r\n  function registerDoctor(\r\n    string memory name,\r\n    string memory specialization,\r\n    string memory licenseNumber\r\n    ) public {\r\n    require(!registeredUsers[msg.sender], 'You are already registered');\r\n    require(bytes(name).length > 0, 'Name cannot be empty');\r\n    require(bytes(specialization).length > 0, 'Specialization cannot be empty');\r\n    require(bytes(licenseNumber).length > 0, 'License number cannot be empty');\r\n    \r\n\r\n    doctorCount++;\r\n\r\n    doctors[msg.sender] = Doctor({\r\n      id: doctorCount,\r\n      name: name,\r\n      specialization: specialization,\r\n      licenseNumber: licenseNumber,\r\n      verified: false,\r\n      appointmentFee: 0.01 ether,\r\n      timestamp: block.timestamp,\r\n      doctorAddress: msg.sender\r\n    });\r\n\r\n\r\n    registeredUsers[msg.sender] = true;\r\n    userType[msg.sender] = 2;\r\n    doctorAddresses.push(msg.sender);\r\n\r\n    emit DoctorRegistered(msg.sender, doctorCount, name, specialization, block.timestamp);\r\n    \r\n  }\r\n\r\n  function updatePatientData(\r\n    address patientAddress,\r\n    uint vaccineStatusCode,\r\n    bool isDead\r\n  ) public onlyAdmin {\r\n    require(userType[patientAddress] == 3, 'Address is not a registered patient');\r\n    require(vaccineStatusCode <= uint(VaccineStatus.BOOSTER), 'Invalid vaccine status');\r\n\r\n    Patient storage patient = patients[patientAddress];\r\n\r\n    require(!(patient.isDead && isDead == false), 'Dead patient cannot be marked as alive');\r\n\r\n    patient.vaccineStatus = VaccineStatus(vaccineStatusCode);\r\n    if (!patient.isDead) {\r\n      patient.isDead = isDead;\r\n    }\r\n\r\n    emit PatientUpdated(patientAddress, 'vaccineStatus', block.timestamp);\r\n    if (isDead) {\r\n      emit PatientUpdated(patientAddress, 'deceased', block.timestamp);\r\n    }\r\n  }\r\n\r\n  function updatePatientSeverity(address patientAddress, uint severityCode) public onlyAdmin {\r\n    require(userType[patientAddress] == 3, 'Address is not a registered patient');\r\n    require(severityCode <= uint(PatientSeverity.CRITICAL), 'Invalid severity status');\r\n    require(!patients[patientAddress].isDead, 'Cannot update deceased patient');\r\n\r\n    patients[patientAddress].severity = PatientSeverity(severityCode);\r\n    patients[patientAddress].lastCheckup = block.timestamp;\r\n\r\n    emit PatientUpdated(patientAddress, 'severity', block.timestamp);\r\n  }\r\n\r\n  function addPatientAllergy(address patientAddress, string memory allergy) public onlyAdmin {\r\n    require(userType[patientAddress] == 3, 'Address is not a registered patient');\r\n    require(bytes(allergy).length > 0, 'Allergy cannot be empty');\r\n    require(!patients[patientAddress].isDead, 'Cannot update deceased patient');\r\n\r\n    patients[patientAddress].allergies.push(allergy);\r\n\r\n    emit PatientUpdated(patientAddress, 'allergy', block.timestamp);\r\n  }\r\n\r\n  function addPatientMedication(address patientAddress, string memory medication) public onlyAdmin {\r\n    require(userType[patientAddress] == 3, 'Address is not a registered patient');\r\n    require(bytes(medication).length > 0, 'Medication cannot be empty');\r\n    require(!patients[patientAddress].isDead, 'Cannot update deceased patient');\r\n\r\n    patients[patientAddress].medications.push(medication);\r\n\r\n    emit PatientUpdated(patientAddress, 'medication', block.timestamp);\r\n  }\r\n\r\n  function verifyDoctor(address doctorAddress) public onlyAdmin {\r\n    require(userType[doctorAddress] == 2, 'Address is not a registered doctor');\r\n\r\n    doctors[doctorAddress].verified = true;\r\n\r\n    emit DoctorRegistered(\r\n      doctorAddress,\r\n      doctors[doctorAddress].id,\r\n      doctors[doctorAddress].name,\r\n      doctors[doctorAddress].specialization,\r\n      block.timestamp\r\n    );\r\n  }\r\n\r\n  function setDoctorAppointmentFee(uint fee) public onlyDoctor {\r\n    require(fee > 0, 'Fee must be greater than 0');\r\n\r\n    doctors[msg.sender].appointmentFee = fee;\r\n  }\r\n\r\n  function bookAppointment(\r\n    address doctorAddress,\r\n    address adminAddress,\r\n    string memory timeSlot\r\n  ) public payable onlyPatient {\r\n    require(userType[doctorAddress] == 2, 'Not a valid doctor');\r\n    require(doctors[doctorAddress].verified, 'Doctor is not verified');\r\n    require(userType[adminAddress] == 1, 'Not a valid admin');\r\n    require(\r\n      msg.value >= doctors[doctorAddress].appointmentFee,\r\n      'Insufficient payment for appointment'\r\n    );\r\n    require(!patients[msg.sender].isDead, 'Deceased patients cannot book appointments');\r\n\r\n    bool validSlot = false;\r\n    for (uint i = 0; i < timeSlots.length; i++) {\r\n      if (keccak256(bytes(timeSlots[i])) == keccak256(bytes(timeSlot))) {\r\n        validSlot = true;\r\n        break;\r\n      }\r\n    }\r\n    require(validSlot, 'Invalid time slot');\r\n\r\n    Appointment storage appointment = doctorAppointments[doctorAddress][timeSlot];\r\n    require(appointment.patient == address(0), 'Time slot already booked');\r\n\r\n    appointment.patient = msg.sender;\r\n    appointment.timestamp = block.timestamp;\r\n    appointment.completed = false;\r\n\r\n    appointmentCount++;\r\n\r\n    // Transfer fee to admin\r\n    payable(adminAddress).transfer(msg.value);\r\n\r\n    emit AppointmentBooked(msg.sender, doctorAddress, timeSlot, msg.value, block.timestamp);\r\n  }\r\n\r\n  function completeAppointment(\r\n    string memory timeSlot,\r\n    string memory diagnosis,\r\n    string memory prescription\r\n  ) public onlyDoctor {\r\n    Appointment storage appointment = doctorAppointments[msg.sender][timeSlot];\r\n\r\n    require(appointment.patient != address(0), 'No appointment in this time slot');\r\n    require(!appointment.completed, 'Appointment already completed');\r\n\r\n    appointment.completed = true;\r\n    appointment.diagnosis = diagnosis;\r\n    appointment.prescription = prescription;\r\n\r\n    // Update patient's last checkup time\r\n    patients[appointment.patient].lastCheckup = block.timestamp;\r\n\r\n    emit AppointmentCompleted(appointment.patient, msg.sender, timeSlot, block.timestamp);\r\n  }\r\n\r\n  function viewAppointmentSchedule(\r\n    address doctorAddress\r\n  ) public view onlyRegisteredUser returns (string[] memory, address[] memory, bool[] memory) {\r\n    require(userType[doctorAddress] == 2, 'Not a valid doctor');\r\n\r\n    string[] memory availableSlots = new string[](timeSlots.length);\r\n    address[] memory bookedPatients = new address[](timeSlots.length);\r\n    bool[] memory completionStatus = new bool[](timeSlots.length);\r\n\r\n    for (uint i = 0; i < timeSlots.length; i++) {\r\n      availableSlots[i] = timeSlots[i];\r\n      Appointment storage appointment = doctorAppointments[doctorAddress][timeSlots[i]];\r\n      bookedPatients[i] = appointment.patient;\r\n      completionStatus[i] = appointment.completed;\r\n    }\r\n\r\n    return (availableSlots, bookedPatients, completionStatus);\r\n  }\r\n\r\n  function getAppointmentDetails(\r\n    address doctorAddress,\r\n    string memory timeSlot\r\n  ) public view onlyRegisteredUser returns (address, uint, bool, string memory, string memory) {\r\n    require(userType[doctorAddress] == 2, 'Not a valid doctor');\r\n\r\n    Appointment storage appointment = doctorAppointments[doctorAddress][timeSlot];\r\n\r\n    require(appointment.patient != address(0), 'No appointment in this time slot');\r\n\r\n    // Only doctor, admin, or the patient can view complete details\r\n    if (\r\n      msg.sender != doctorAddress && userType[msg.sender] != 1 && msg.sender != appointment.patient\r\n    ) {\r\n      return (appointment.patient, appointment.timestamp, appointment.completed, '', '');\r\n    }\r\n\r\n    return (\r\n      appointment.patient,\r\n      appointment.timestamp,\r\n      appointment.completed,\r\n      appointment.diagnosis,\r\n      appointment.prescription\r\n    );\r\n  }\r\n\r\n  function getPatientAllergies(\r\n    address patientAddress\r\n  ) public view onlyRegisteredUser returns (string[] memory) {\r\n    require(userType[patientAddress] == 3, 'Not a valid patient');\r\n\r\n    // Only admin, doctor, or patient themselves can view this\r\n    require(\r\n      userType[msg.sender] == 1 || userType[msg.sender] == 2 || msg.sender == patientAddress,\r\n      'Not authorized to view this information'\r\n    );\r\n\r\n    return patients[patientAddress].allergies;\r\n  }\r\n\r\n  function getPatientMedications(\r\n    address patientAddress\r\n  ) public view onlyRegisteredUser returns (string[] memory) {\r\n    require(userType[patientAddress] == 3, 'Not a valid patient');\r\n\r\n    // Only admin, doctor, or patient themselves can view this\r\n    require(\r\n      userType[msg.sender] == 1 || userType[msg.sender] == 2 || msg.sender == patientAddress,\r\n      'Not authorized to view this information'\r\n    );\r\n\r\n    return patients[patientAddress].medications;\r\n  }\r\n\r\n  function getCovidTrendData(\r\n    address patientAddress\r\n  ) public view onlyRegisteredUser returns (uint, string memory, uint, bool, PatientSeverity) {\r\n    require(userType[patientAddress] == 3, 'Not a valid patient');\r\n\r\n    Patient storage patient = patients[patientAddress];\r\n\r\n    return (\r\n      patient.age,\r\n      patient.district,\r\n      uint(patient.vaccineStatus),\r\n      patient.isDead,\r\n      patient.severity\r\n    );\r\n  }\r\n\r\n  function addEmergencyContact(address contact) public onlyPatient {\r\n    require(registeredUsers[contact], 'Emergency contact must be a registered user');\r\n\r\n    emergencyContacts[msg.sender].push(contact);\r\n  }\r\n\r\n  function getPatientCount() public view returns (uint) {\r\n    return patientCount;\r\n  }\r\n\r\n  function getDoctorCount() public view returns (uint) {\r\n    return doctorCount;\r\n  }\r\n\r\n  function getPatientByIndex(uint index) public view onlyRegisteredUser returns (address) {\r\n    require(index < patientAddresses.length, 'Invalid index');\r\n\r\n    return patientAddresses[index];\r\n  }\r\n\r\n  function getDoctorByIndex(uint index) public view onlyRegisteredUser returns (address) {\r\n    require(index < doctorAddresses.length, 'Invalid index');\r\n\r\n    return doctorAddresses[index];\r\n  }\r\n}\r\n",
  "sourcePath": "C:\\Users\\Anjali Patel\\Desktop\\CN6035 FINAL\\HealthCare-dApp (2)\\contracts\\PatientManagement.sol",
  "compiler": {
    "name": "solc",
    "version": "0.8.16+commit.07a7930e.Emscripten.clang"
  },
  "schemaVersion": "3.4.16",
  "updatedAt": "2025-03-27T14:55:17.854Z",
  "networkType": "ethereum",
  "devdoc": {
    "details": "A system for managing patient records, appointments, and healthcare data on blockchain",
    "kind": "dev",
    "methods": {},
    "title": "PatientManagement",
    "version": 1
  },
  "userdoc": {
    "kind": "user",
    "methods": {},
    "version": 1
  }
}