{
  "contractName": "PatientManagement",
  "abi": [
    {
      "inputs": [],
      "stateMutability": "nonpayable",
      "type": "constructor"
    },
    {
      "anonymous": false,
      "inputs": [
        {
          "indexed": true,
          "internalType": "address",
          "name": "adminAddress",
          "type": "address"
        },
        {
          "indexed": false,
          "internalType": "uint256",
          "name": "id",
          "type": "uint256"
        },
        {
          "indexed": false,
          "internalType": "string",
          "name": "name",
          "type": "string"
        },
        {
          "indexed": false,
          "internalType": "uint256",
          "name": "timestamp",
          "type": "uint256"
        }
      ],
      "name": "AdminRegistered",
      "type": "event"
    },
    {
      "anonymous": false,
      "inputs": [
        {
          "indexed": true,
          "internalType": "address",
          "name": "patientAddress",
          "type": "address"
        },
        {
          "indexed": true,
          "internalType": "address",
          "name": "doctorAddress",
          "type": "address"
        },
        {
          "indexed": false,
          "internalType": "string",
          "name": "timeSlot",
          "type": "string"
        },
        {
          "indexed": false,
          "internalType": "uint256",
          "name": "fee",
          "type": "uint256"
        },
        {
          "indexed": false,
          "internalType": "uint256",
          "name": "timestamp",
          "type": "uint256"
        }
      ],
      "name": "AppointmentBooked",
      "type": "event"
    },
    {
      "anonymous": false,
      "inputs": [
        {
          "indexed": true,
          "internalType": "address",
          "name": "patientAddress",
          "type": "address"
        },
        {
          "indexed": true,
          "internalType": "address",
          "name": "doctorAddress",
          "type": "address"
        },
        {
          "indexed": false,
          "internalType": "string",
          "name": "timeSlot",
          "type": "string"
        },
        {
          "indexed": false,
          "internalType": "uint256",
          "name": "timestamp",
          "type": "uint256"
        }
      ],
      "name": "AppointmentCompleted",
      "type": "event"
    },
    {
      "anonymous": false,
      "inputs": [
        {
          "indexed": true,
          "internalType": "address",
          "name": "doctorAddress",
          "type": "address"
        },
        {
          "indexed": false,
          "internalType": "uint256",
          "name": "id",
          "type": "uint256"
        },
        {
          "indexed": false,
          "internalType": "string",
          "name": "name",
          "type": "string"
        },
        {
          "indexed": false,
          "internalType": "string",
          "name": "specialization",
          "type": "string"
        },
        {
          "indexed": false,
          "internalType": "uint256",
          "name": "timestamp",
          "type": "uint256"
        }
      ],
      "name": "DoctorRegistered",
      "type": "event"
    },
    {
      "anonymous": false,
      "inputs": [
        {
          "indexed": true,
          "internalType": "address",
          "name": "patientAddress",
          "type": "address"
        },
        {
          "indexed": false,
          "internalType": "uint256",
          "name": "id",
          "type": "uint256"
        },
        {
          "indexed": false,
          "internalType": "string",
          "name": "name",
          "type": "string"
        },
        {
          "indexed": false,
          "internalType": "uint256",
          "name": "timestamp",
          "type": "uint256"
        }
      ],
      "name": "PatientRegistered",
      "type": "event"
    },
    {
      "anonymous": false,
      "inputs": [
        {
          "indexed": true,
          "internalType": "address",
          "name": "patientAddress",
          "type": "address"
        },
        {
          "indexed": false,
          "internalType": "string",
          "name": "updateField",
          "type": "string"
        },
        {
          "indexed": false,
          "internalType": "uint256",
          "name": "timestamp",
          "type": "uint256"
        }
      ],
      "name": "PatientUpdated",
      "type": "event"
    },
    {
      "inputs": [
        {
          "internalType": "uint256",
          "name": "",
          "type": "uint256"
        }
      ],
      "name": "adminAddresses",
      "outputs": [
        {
          "internalType": "address",
          "name": "",
          "type": "address"
        }
      ],
      "stateMutability": "view",
      "type": "function",
      "constant": true
    },
    {
      "inputs": [],
      "name": "adminCount",
      "outputs": [
        {
          "internalType": "uint256",
          "name": "",
          "type": "uint256"
        }
      ],
      "stateMutability": "view",
      "type": "function",
      "constant": true
    },
    {
      "inputs": [
        {
          "internalType": "address",
          "name": "",
          "type": "address"
        }
      ],
      "name": "admins",
      "outputs": [
        {
          "internalType": "uint256",
          "name": "id",
          "type": "uint256"
        },
        {
          "internalType": "string",
          "name": "name",
          "type": "string"
        },
        {
          "internalType": "uint256",
          "name": "timestamp",
          "type": "uint256"
        },
        {
          "internalType": "bool",
          "name": "active",
          "type": "bool"
        }
      ],
      "stateMutability": "view",
      "type": "function",
      "constant": true
    },
    {
      "inputs": [],
      "name": "appointmentCount",
      "outputs": [
        {
          "internalType": "uint256",
          "name": "",
          "type": "uint256"
        }
      ],
      "stateMutability": "view",
      "type": "function",
      "constant": true
    },
    {
      "inputs": [
        {
          "internalType": "uint256",
          "name": "",
          "type": "uint256"
        }
      ],
      "name": "doctorAddresses",
      "outputs": [
        {
          "internalType": "address",
          "name": "",
          "type": "address"
        }
      ],
      "stateMutability": "view",
      "type": "function",
      "constant": true
    },
    {
      "inputs": [
        {
          "internalType": "address",
          "name": "",
          "type": "address"
        },
        {
          "internalType": "string",
          "name": "",
          "type": "string"
        }
      ],
      "name": "doctorAppointments",
      "outputs": [
        {
          "internalType": "address",
          "name": "patient",
          "type": "address"
        },
        {
          "internalType": "uint256",
          "name": "timestamp",
          "type": "uint256"
        },
        {
          "internalType": "bool",
          "name": "completed",
          "type": "bool"
        },
        {
          "internalType": "string",
          "name": "diagnosis",
          "type": "string"
        },
        {
          "internalType": "string",
          "name": "prescription",
          "type": "string"
        }
      ],
      "stateMutability": "view",
      "type": "function",
      "constant": true
    },
    {
      "inputs": [],
      "name": "doctorCount",
      "outputs": [
        {
          "internalType": "uint256",
          "name": "",
          "type": "uint256"
        }
      ],
      "stateMutability": "view",
      "type": "function",
      "constant": true
    },
    {
      "inputs": [
        {
          "internalType": "string",
          "name": "",
          "type": "string"
        },
        {
          "internalType": "uint256",
          "name": "",
          "type": "uint256"
        }
      ],
      "name": "doctorSchedule",
      "outputs": [
        {
          "internalType": "bool",
          "name": "",
          "type": "bool"
        }
      ],
      "stateMutability": "view",
      "type": "function",
      "constant": true
    },
    {
      "inputs": [
        {
          "internalType": "address",
          "name": "",
          "type": "address"
        }
      ],
      "name": "doctors",
      "outputs": [
        {
          "internalType": "uint256",
          "name": "id",
          "type": "uint256"
        },
        {
          "internalType": "string",
          "name": "name",
          "type": "string"
        },
        {
          "internalType": "string",
          "name": "specialization",
          "type": "string"
        },
        {
          "internalType": "string",
          "name": "licenseNumber",
          "type": "string"
        },
        {
          "internalType": "bool",
          "name": "verified",
          "type": "bool"
        },
        {
          "internalType": "uint256",
          "name": "appointmentFee",
          "type": "uint256"
        },
        {
          "internalType": "uint256",
          "name": "timestamp",
          "type": "uint256"
        },
        {
          "internalType": "address",
          "name": "doctorAddress",
          "type": "address"
        }
      ],
      "stateMutability": "view",
      "type": "function",
      "constant": true
    },
    {
      "inputs": [
        {
          "internalType": "address",
          "name": "",
          "type": "address"
        },
        {
          "internalType": "uint256",
          "name": "",
          "type": "uint256"
        }
      ],
      "name": "emergencyContacts",
      "outputs": [
        {
          "internalType": "address",
          "name": "",
          "type": "address"
        }
      ],
      "stateMutability": "view",
      "type": "function",
      "constant": true
    },
    {
      "inputs": [
        {
          "internalType": "uint256",
          "name": "",
          "type": "uint256"
        }
      ],
      "name": "patientAddresses",
      "outputs": [
        {
          "internalType": "address",
          "name": "",
          "type": "address"
        }
      ],
      "stateMutability": "view",
      "type": "function",
      "constant": true
    },
    {
      "inputs": [],
      "name": "patientCount",
      "outputs": [
        {
          "internalType": "uint256",
          "name": "",
          "type": "uint256"
        }
      ],
      "stateMutability": "view",
      "type": "function",
      "constant": true
    },
    {
      "inputs": [
        {
          "internalType": "address",
          "name": "",
          "type": "address"
        }
      ],
      "name": "patients",
      "outputs": [
        {
          "internalType": "uint256",
          "name": "id",
          "type": "uint256"
        },
        {
          "internalType": "uint256",
          "name": "age",
          "type": "uint256"
        },
        {
          "internalType": "string",
          "name": "name",
          "type": "string"
        },
        {
          "internalType": "string",
          "name": "gender",
          "type": "string"
        },
        {
          "internalType": "string",
          "name": "district",
          "type": "string"
        },
        {
          "internalType": "enum PatientManagement.VaccineStatus",
          "name": "vaccineStatus",
          "type": "uint8"
        },
        {
          "internalType": "string",
          "name": "symptomsDetails",
          "type": "string"
        },
        {
          "internalType": "enum PatientManagement.PatientSeverity",
          "name": "severity",
          "type": "uint8"
        },
        {
          "internalType": "bool",
          "name": "isDead",
          "type": "bool"
        },
        {
          "internalType": "address",
          "name": "patientAddress",
          "type": "address"
        },
        {
          "internalType": "uint256",
          "name": "lastCheckup",
          "type": "uint256"
        },
        {
          "internalType": "string",
          "name": "bloodGroup",
          "type": "string"
        },
        {
          "internalType": "uint256",
          "name": "timestamp",
          "type": "uint256"
        }
      ],
      "stateMutability": "view",
      "type": "function",
      "constant": true
    },
    {
      "inputs": [
        {
          "internalType": "uint256",
          "name": "",
          "type": "uint256"
        }
      ],
      "name": "timeSlots",
      "outputs": [
        {
          "internalType": "string",
          "name": "",
          "type": "string"
        }
      ],
      "stateMutability": "view",
      "type": "function",
      "constant": true
    },
    {
      "inputs": [
        {
          "internalType": "address",
          "name": "",
          "type": "address"
        }
      ],
      "name": "userType",
      "outputs": [
        {
          "internalType": "uint256",
          "name": "",
          "type": "uint256"
        }
      ],
      "stateMutability": "view",
      "type": "function",
      "constant": true
    },
    {
      "inputs": [
        {
          "internalType": "string",
          "name": "timeSlot",
          "type": "string"
        }
      ],
      "name": "isSlotValid",
      "outputs": [
        {
          "internalType": "bool",
          "name": "",
          "type": "bool"
        }
      ],
      "stateMutability": "view",
      "type": "function",
      "constant": true
    },
    {
      "inputs": [
        {
          "internalType": "string",
          "name": "name",
          "type": "string"
        }
      ],
      "name": "registerAdmin",
      "outputs": [],
      "stateMutability": "nonpayable",
      "type": "function"
    },
    {
      "inputs": [
        {
          "internalType": "uint256",
          "name": "age",
          "type": "uint256"
        },
        {
          "internalType": "string",
          "name": "name",
          "type": "string"
        },
        {
          "internalType": "string",
          "name": "gender",
          "type": "string"
        },
        {
          "internalType": "string",
          "name": "district",
          "type": "string"
        },
        {
          "internalType": "string",
          "name": "symptomsDetails",
          "type": "string"
        },
        {
          "internalType": "string",
          "name": "bloodGroup",
          "type": "string"
        }
      ],
      "name": "registerPatient",
      "outputs": [],
      "stateMutability": "nonpayable",
      "type": "function"
    },
    {
      "inputs": [
        {
          "internalType": "string",
          "name": "name",
          "type": "string"
        },
        {
          "internalType": "string",
          "name": "specialization",
          "type": "string"
        },
        {
          "internalType": "string",
          "name": "licenseNumber",
          "type": "string"
        }
      ],
      "name": "registerDoctor",
      "outputs": [],
      "stateMutability": "nonpayable",
      "type": "function"
    },
    {
      "inputs": [
        {
          "internalType": "address",
          "name": "patientAddress",
          "type": "address"
        },
        {
          "internalType": "uint256",
          "name": "vaccineStatusCode",
          "type": "uint256"
        },
        {
          "internalType": "bool",
          "name": "isDead",
          "type": "bool"
        }
      ],
      "name": "updatePatientData",
      "outputs": [],
      "stateMutability": "nonpayable",
      "type": "function"
    },
    {
      "inputs": [
        {
          "internalType": "address",
          "name": "patientAddress",
          "type": "address"
        },
        {
          "internalType": "uint256",
          "name": "severityCode",
          "type": "uint256"
        }
      ],
      "name": "updatePatientSeverity",
      "outputs": [],
      "stateMutability": "nonpayable",
      "type": "function"
    },
    {
      "inputs": [
        {
          "internalType": "address",
          "name": "patientAddress",
          "type": "address"
        },
        {
          "internalType": "string",
          "name": "allergy",
          "type": "string"
        }
      ],
      "name": "addPatientAllergy",
      "outputs": [],
      "stateMutability": "nonpayable",
      "type": "function"
    },
    {
      "inputs": [
        {
          "internalType": "address",
          "name": "patientAddress",
          "type": "address"
        },
        {
          "internalType": "string",
          "name": "medication",
          "type": "string"
        }
      ],
      "name": "addPatientMedication",
      "outputs": [],
      "stateMutability": "nonpayable",
      "type": "function"
    },
    {
      "inputs": [
        {
          "internalType": "address",
          "name": "doctorAddress",
          "type": "address"
        }
      ],
      "name": "verifyDoctor",
      "outputs": [],
      "stateMutability": "nonpayable",
      "type": "function"
    },
    {
      "inputs": [
        {
          "internalType": "uint256",
          "name": "fee",
          "type": "uint256"
        }
      ],
      "name": "setDoctorAppointmentFee",
      "outputs": [],
      "stateMutability": "nonpayable",
      "type": "function"
    },
    {
      "inputs": [
        {
          "internalType": "address",
          "name": "doctorAddress",
          "type": "address"
        },
        {
          "internalType": "address",
          "name": "adminAddress",
          "type": "address"
        },
        {
          "internalType": "string",
          "name": "timeSlot",
          "type": "string"
        }
      ],
      "name": "bookAppointment",
      "outputs": [],
      "stateMutability": "payable",
      "type": "function",
      "payable": true
    },
    {
      "inputs": [
        {
          "internalType": "string",
          "name": "timeSlot",
          "type": "string"
        },
        {
          "internalType": "string",
          "name": "diagnosis",
          "type": "string"
        },
        {
          "internalType": "string",
          "name": "prescription",
          "type": "string"
        }
      ],
      "name": "completeAppointment",
      "outputs": [],
      "stateMutability": "nonpayable",
      "type": "function"
    },
    {
      "inputs": [
        {
          "internalType": "address",
          "name": "doctorAddress",
          "type": "address"
        }
      ],
      "name": "viewAppointmentSchedule",
      "outputs": [
        {
          "internalType": "string[]",
          "name": "",
          "type": "string[]"
        },
        {
          "internalType": "address[]",
          "name": "",
          "type": "address[]"
        },
        {
          "internalType": "bool[]",
          "name": "",
          "type": "bool[]"
        }
      ],
      "stateMutability": "view",
      "type": "function",
      "constant": true
    },
    {
      "inputs": [
        {
          "internalType": "address",
          "name": "doctorAddress",
          "type": "address"
        },
        {
          "internalType": "string",
          "name": "timeSlot",
          "type": "string"
        }
      ],
      "name": "getAppointmentDetails",
      "outputs": [
        {
          "internalType": "address",
          "name": "",
          "type": "address"
        },
        {
          "internalType": "uint256",
          "name": "",
          "type": "uint256"
        },
        {
          "internalType": "bool",
          "name": "",
          "type": "bool"
        },
        {
          "internalType": "string",
          "name": "",
          "type": "string"
        },
        {
          "internalType": "string",
          "name": "",
          "type": "string"
        }
      ],
      "stateMutability": "view",
      "type": "function",
      "constant": true
    },
    {
      "inputs": [
        {
          "internalType": "address",
          "name": "patientAddress",
          "type": "address"
        }
      ],
      "name": "getPatientAllergies",
      "outputs": [
        {
          "internalType": "string[]",
          "name": "",
          "type": "string[]"
        }
      ],
      "stateMutability": "view",
      "type": "function",
      "constant": true
    },
    {
      "inputs": [
        {
          "internalType": "address",
          "name": "patientAddress",
          "type": "address"
        }
      ],
      "name": "getPatientMedications",
      "outputs": [
        {
          "internalType": "string[]",
          "name": "",
          "type": "string[]"
        }
      ],
      "stateMutability": "view",
      "type": "function",
      "constant": true
    },
    {
      "inputs": [
        {
          "internalType": "address",
          "name": "patientAddress",
          "type": "address"
        }
      ],
      "name": "getCovidTrendData",
      "outputs": [
        {
          "internalType": "uint256",
          "name": "",
          "type": "uint256"
        },
        {
          "internalType": "string",
          "name": "",
          "type": "string"
        },
        {
          "internalType": "uint256",
          "name": "",
          "type": "uint256"
        },
        {
          "internalType": "bool",
          "name": "",
          "type": "bool"
        },
        {
          "internalType": "enum PatientManagement.PatientSeverity",
          "name": "",
          "type": "uint8"
        }
      ],
      "stateMutability": "view",
      "type": "function",
      "constant": true
    },
    {
      "inputs": [
        {
          "internalType": "address",
          "name": "contact",
          "type": "address"
        }
      ],
      "name": "addEmergencyContact",
      "outputs": [],
      "stateMutability": "nonpayable",
      "type": "function"
    },
    {
      "inputs": [],
      "name": "getPatientCount",
      "outputs": [
        {
          "internalType": "uint256",
          "name": "",
          "type": "uint256"
        }
      ],
      "stateMutability": "view",
      "type": "function",
      "constant": true
    },
    {
      "inputs": [],
      "name": "getDoctorCount",
      "outputs": [
        {
          "internalType": "uint256",
          "name": "",
          "type": "uint256"
        }
      ],
      "stateMutability": "view",
      "type": "function",
      "constant": true
    },
    {
      "inputs": [
        {
          "internalType": "uint256",
          "name": "index",
          "type": "uint256"
        }
      ],
      "name": "getPatientByIndex",
      "outputs": [
        {
          "internalType": "address",
          "name": "",
          "type": "address"
        }
      ],
      "stateMutability": "view",
      "type": "function",
      "constant": true
    },
    {
      "inputs": [
        {
          "internalType": "uint256",
          "name": "index",
          "type": "uint256"
        }
      ],
      "name": "getDoctorByIndex",
      "outputs": [
        {
          "internalType": "address",
          "name": "",
          "type": "address"
        }
      ],
      "stateMutability": "view",
      "type": "function",
      "constant": true
    }
  ],
  "bytecode": "0x608034620005eb5760c08101906001600160401b039081831181841017620005d557604092835262000030620005f0565b90601180835260209270313a303020504d202d20323a303020504d60781b8482015282526200005e620005f0565b81815270323a303020504d202d20333a303020504d60781b848201528383015262000088620005f0565b81815270333a303020504d202d20343a303020504d60781b8482015285830152620000b2620005f0565b81815270343a303020504d202d20353a303020504d60781b848201526060830152620000dd620005f0565b81815270353a303020504d202d20363a303020504d60781b84820152608083015262000108620005f0565b81815270363a303020504d202d20373a303020504d60781b8482015260a0830152600e549160069283600e5580841062000554575b50600092600e845284842084925b8284106200042557505050508154916000199283811462000412576001809101938483558751946080860186811089821117620003fe578952855262000190620005f0565b908482527021b7b73a3930b1ba102232b83637bcb2b960791b9586888401528781019283528981014281526060820193858552730d2f38cd0f5cb5e52e8701e0378dfa958aa43cf59a8b885260048b528c8820935184558684019151948551918211620003ea5762000203835462000610565b8c601f8211620003ac575b50508b95601f831160011462000330576003968a92918462000324575b505082891b92871b1c19161790555b51600282015501905115159060ff199160ff838354169116179055868352600c86528188842091825416179055600d85528087832055600b5490680100000000000000008210156200031057810180600b55811015620002fc57600b82528482200180546001600160a01b03191686179055548551908152606093810184905292830152608082015242818401527f74e6a337d95c5b7de3c8d5db7dcd734c06d5ffd6eb33c527f8dff80f1331d1149060a090a2516132e29081620006678239f35b634e487b7160e01b82526032600452602482fd5b634e487b7160e01b83526041600452602483fd5b0151915038806200022b565b958892918d91601f19841698868d52838d20938d905b8b8210620003825750508460039a106200036a575b50505050811b0190556200023a565b01519060f8848a1b161c19169055388080806200035b565b9193959798999a92968291958886015181550196019301918f928c9694929a999897959362000346565b848b52808b20620003d792601f860160051c8201928610620003df575b601f0160051c01906200064d565b388c6200020e565b9091508190620003c9565b634e487b7160e01b89526041600452602489fd5b634e487b7160e01b85526041600452602485fd5b50602491634e487b7160e01b8252600452fd5b8051805190898211620005405790889162000441855462000610565b90601f9182811162000505575b508391831160011462000499579180600195928695948c926200048d575b5050600019600383901b1c191690841b1785555b019201930192906200014b565b0151905038806200046c565b858a52838a209190601f1984168b5b818110620004ec5750916001969391858897969410620004d2575b505050831b8301855562000480565b015160001960f88460031b161c19169055388080620004c3565b8284015185558d966001909501949384019301620004a8565b6200052f90878c52858c20600585808801821c83019389891062000536575b01901c01906200064d565b386200044e565b9350829362000524565b634e487b7160e01b88526041600452602488fd5b6000600e81528486822092830192015b828110620005745750506200013d565b80620005836001925462000610565b8062000592575b500162000564565b601f908181118414620005ac5750508281555b386200058a565b83620005c7928487528b8720920160051c820191016200064d565b8288812081835555620005a5565b634e487b7160e01b600052604160045260246000fd5b600080fd5b60408051919082016001600160401b03811183821017620005d557604052565b90600182811c9216801562000642575b60208310146200062c57565b634e487b7160e01b600052602260045260246000fd5b91607f169162000620565b81811062000659575050565b600081556001016200064d56fe6080604052600436101561001257600080fd5b60003560e01c80630869cfbc14612579578063106047491461253557806320ede3a2146123ac5780632b7832b31461238e5780632f80123f1461229857806332bd1efc146120975780633ba51e7c1461203c578063429b62e514611fc45780634c693a6314611f195780635090a1d614611b7257806350c7a912146118dc578063513728ff1461179257806355045c82146114e557806357ea0c2f146114675780635a357c19146113e957806365a5a9981461131857806368eb186b146111ee5780636d3260d21461117e5780636ffdfed21461112557806378522bc41461110757806379111c1c146111075780638654c1431461100057806386e1c04f14610f9b57806392bf31c414610f57578063a0303c4114610d7a578063a9583c2214610e88578063b40f169114610e2d578063b83458b014610df3578063ba44eecf14610d98578063c190665b14610d7a578063d7f9238d14610c28578063d80cb05c14610ade578063dc5b1524146109d7578063ece7f6251461036f578063ed0fea34146102fd578063edee044c146101d65763eebc3fb2146101b357600080fd5b346101d15760003660031901126101d1576020600354604051908152f35b600080fd5b346101d1576101e4366128b2565b9033600052602090600d8252610201600160406000205414612d66565b336000526004825261021d60ff60036040600020015416612dbe565b60018060a01b03169182600052600d825261023f600360406000205414612e0a565b8051156102b85760008051602061328d83398151915291610291608092856000526005835261027c60ff60076040600020015460081c1615612e62565b8560005260058352600a604060002001612eae565b60405190604082526007604083015266616c6c6572677960c81b60608301524290820152a2005b60405162461bcd60e51b815260048101839052601760248201527f416c6c657267792063616e6e6f7420626520656d7074790000000000000000006044820152606490fd5b346101d15761033061030e366128b2565b6001600160a01b03918216600090815260076020526040902091929190612a3b565b9081541661036b60018301549260ff6002820154169061035e60046103576003840161274e565b920161274e565b91604051958695866128f4565b0390f35b346101d15760c03660031901126101d1576004356001600160401b036024358181116101d1576103a390369060040161285c565b91604480358381116101d1576103bd90369060040161285c565b60649081358581116101d1576103d790369060040161285c565b906084358681116101d1576103f090369060040161285c565b9260a4358781116101d15761040990369060040161285c565b9433600052600c60205261042560ff6040600020541615612b6b565b61043189511515612bb7565b86156109965782511561095c5783511561091b578451156108da57855115610899575050610460600154612a61565b948560015560405195602087018781108982111761074b5760405260008752604051976101e08901908982109082111761074b576040528752602087015286604087015260608601526080850152600060a085015260c0840152600060e084015260006101008401523361012084015242610140840152610160830152806101808301526101a0820152426101c0820152336000526005602052604060002090805182556020810151600183015561051f604082015160028401612c11565b610530606082015160038401612c11565b610541608082015160048401612c11565b61055b60a08201516105528161283c565b60058401612d4e565b61056c60c082015160068401612c11565b6007820161058760e08301516105818161283c565b82612d4e565b610100820151815461ff00191690151560081b61ff0016178155610120820151815462010000600160b01b03191660109190911b62010000600160b01b031617905561014081015160088301556101608101516105e79060098401612c11565b610180810151805190600160401b821161074b57600a84015482600a86015580831061081a575b50602001600a840160005260206000206000915b8383106107fd57505050506101a0810151805190600160401b821161074b57600b84015482600b86015580831061077e575b50602001600b840160005260206000206000915b838310610761578686600c6101c088015191015533600052600c6020526040600020600160ff19825416179055600d6020526003604060002055600954600160401b81101561074b5760018101806009558110156107355760096000527f6e1540171b6c0c960b71a7020d9f60077f6af931a8bbf590da0223dacf75c7af01336001600160601b0360a01b8254161790557f9f3b248cef47d79d145479492aaa88ba48cd601ff61995d8c51dfdbea1d37fee6107306001546040519182913395429184612d15565b0390a2005b634e487b7160e01b600052603260045260246000fd5b634e487b7160e01b600052604160045260246000fd5b600160208261077283945186612c11565b01920192019190610668565b600b85016000526020600020908382015b818301811061079f575050610654565b806107ac600192546126d8565b806107b9575b500161078f565b601f9081811184146107d2575050600081555b896107b2565b836107ee92846000526020600020920160051c82019101612bfa565b600060208120818355556107cc565b600160208261080e83945186612c11565b01920192019190610622565b600a85016000526020600020908382015b818301811061083b57505061060e565b80610848600192546126d8565b80610855575b500161082b565b601f90818111841461086e575050600081555b8961084e565b8361088a92846000526020600020920160051c82019101612bfa565b60006020812081835555610868565b7f426c6f6f642067726f75702063616e6e6f7420626520656d70747900000000006040519162461bcd60e51b835260206004840152601b6024840152820152fd5b7f53796d70746f6d732064657461696c732063616e6e6f7420626520656d7074796040519162461bcd60e51b83526020600484015260206024840152820152fd5b7f44697374726963742063616e6e6f7420626520656d70747900000000000000006040519162461bcd60e51b83526020600484015260186024840152820152fd5b7547656e6465722063616e6e6f7420626520656d70747960501b6040519162461bcd60e51b83526020600484015260166024840152820152fd5b7f416765206d7573742062652067726561746572207468616e20300000000000006040519162461bcd60e51b835260206004840152601a6024840152820152fd5b346101d1576020806003193601126101d1576109f16126c2565b33600052600c8252610a0a60ff6040600020541661307b565b60018060a01b03169081600052600d8152610a2c6003604060002054146131b2565b33600052600d815260019182604060002054148015610acf575b8015610ac6575b610a56906131f4565b60005260058152600a604060002001918254610a7181612d37565b93610a7f604051958661272d565b8185526000908152838120848087015b848410610aa9576040518281528061036b8185018b6129df565b85918291610ab68561274e565b8152019201920191908590610a8f565b50338114610a4d565b50600260406000205414610a46565b346101d1576020806003193601126101d157610af86126c2565b33600052600d8252610b11600160406000205414612d66565b3360005260048252610b2d60ff60036040600020015416612dbe565b6001600160a01b03166000818152600d8352604090205490919060011901610bd9577ff153ed9454b823ea4e1c0bd5fe4260a3451b672d3129e9ae76848dbe3dae04aa9082600052600681526004604060002001600160ff19825416179055604060002054610bce6001604060002001610bc0600260406000200191608060405196879687528601526080850190612a86565b908382036040850152612a86565b4260608301520390a2005b6084906040519062461bcd60e51b82526004820152602260248201527f41646472657373206973206e6f742061207265676973746572656420646f637460448201526137b960f11b6064820152fd5b346101d15760403660031901126101d157610c416126c2565b6024359033600052602090600d8252610c61600160406000205414612d66565b3360005260048252610c7d60ff60036040600020015416612dbe565b60018060a01b03169182600052600d8252610c9f600360406000205414612e0a565b60038111610d355760008051602061328d83398151915291610cfb6080928560005260058352610cdd60ff60076040600020015460081c1615612e62565b610ce68161283c565b85600052600583526007604060002001612d4e565b83600052600581524260086040600020015560405190604082526008604083015267736576657269747960c01b60608301524290820152a2005b60405162461bcd60e51b815260048101839052601760248201527f496e76616c6964207365766572697479207374617475730000000000000000006044820152606490fd5b346101d15760003660031901126101d1576020600154604051908152f35b346101d15760203660031901126101d157600435600b548110156101d157600b6000527f0175b7a638427703f0dbe7bb9bbf987a2551717b34e79f33b5b1008d1fa01db901546040516001600160a01b039091168152602090f35b346101d15760203660031901126101d1576001600160a01b03610e146126c2565b16600052600d6020526020604060002054604051908152f35b346101d15760203660031901126101d1576004356009548110156101d15760096000527f6e1540171b6c0c960b71a7020d9f60077f6af931a8bbf590da0223dacf75c7af01546040516001600160a01b039091168152602090f35b346101d15760203660031901126101d1576001600160a01b0380610eaa6126c2565b166000526006602052604060002090815490610ec86001840161274e565b92610ed56002820161274e565b90610ee26003820161274e565b92610f3c60ff60048401541694610f2e600585015493600760068701549601541695610f206040519a8b9a8b526101008060208d01528b0190612817565b9089820360408b0152612817565b908782036060890152612817565b931515608086015260a085015260c084015260e08301520390f35b346101d15760203660031901126101d1576004356001600160401b0381116101d157610f91610f8c602092369060040161285c565b612b1c565b6040519015158152f35b346101d15760203660031901126101d157600435600e548110156101d157610fec61036b91600e6000527fbb7b4a454dc3493923482f07822329ed19e8244eff582cc204f8554c3620c3fd0161274e565b604051918291602083526020830190612817565b346101d1576020806003193601126101d15761101a6126c2565b33600052600c825261103360ff6040600020541661307b565b60018060a01b03169081600052600d81526110556003604060002054146131b2565b33600052600d8152600191826040600020541480156110f8575b80156110ef575b61107f906131f4565b60005260058152600b60406000200191825461109a81612d37565b936110a8604051958661272d565b8185526000908152838120848087015b8484106110d2576040518281528061036b8185018b6129df565b859182916110df8561274e565b81520192019201919085906110b8565b50338114611076565b5060026040600020541461106f565b346101d15760003660031901126101d1576020600254604051908152f35b346101d15760403660031901126101d15761113e6126c2565b6024359060018060a01b03809116600052600f602052604060002080548310156101d15760209261116e9161296c565b9190546040519260031b1c168152f35b346101d15760403660031901126101d1576004356001600160401b0381116101d15760206111b36111c692369060040161285c565b81604051938285809451938492016127f4565b81016008815203019020602435600052602052602060ff604060002054166040519015158152f35b346101d1576111fc366128b2565b9033600052602090600d8252611219600160406000205414612d66565b336000526004825261123560ff60036040600020015416612dbe565b60018060a01b03169182600052600d8252611257600360406000205414612e0a565b8051156112d35760008051602061328d833981519152916112a9608092856000526005835261129460ff60076040600020015460081c1615612e62565b8560005260058352600b604060002001612eae565b6040519060408252600a60408301526936b2b234b1b0ba34b7b760b11b60608301524290820152a2005b60405162461bcd60e51b815260048101839052601a60248201527f4d656469636174696f6e2063616e6e6f7420626520656d7074790000000000006044820152606490fd5b346101d15760203660031901126101d1576113316126c2565b33600052600c60205261134b60ff6040600020541661307b565b6001600160a01b03166000818152600d602052604090205461136f906003146131b2565b60005260056020526040600020600181015460ff6005830154166113928161283c565b60078301549260ff6113a96004828716930161274e565b946113c6604051968796875260a0602088015260a0870190612817565b93604086015260081c16151560608401526113e08161283c565b60808301520390f35b346101d15760203660031901126101d15760043533600052600c60205261141760ff6040600020541661307b565b600a54811061142581613250565b1561073557600a6000527fc65a7bb8d6351c1cf70c95a316cc6a92839c986682d98bc35f958f4883f9d2a801546040516001600160a01b039091168152602090f35b346101d15760203660031901126101d15760043533600052600c60205261149560ff6040600020541661307b565b60095481106114a381613250565b156107355760096000527f6e1540171b6c0c960b71a7020d9f60077f6af931a8bbf590da0223dacf75c7af01546040516001600160a01b039091168152602090f35b346101d15760203660031901126101d1576114fe6126c2565b33600052600c60205261151860ff6040600020541661307b565b6001600160a01b0381166000908152600d602052604090205461153d90600214612fef565b600e549061154a82612d37565b91611558604051938461272d565b808352601f19918261156983612d37565b0160005b81811061178157505061157f82612d37565b61158c604051918261272d565b82815261159883612d37565b92846020830194013685376115ac81612d37565b926115ba604051948561272d565b8184526115c682612d37565b60208501960136873760005b828110611675576115f7888888888860206040519687966060885260608801906129df565b9186830382880152519182815201929060005b818110611653575050506020908483036040860152519182815201919060005b818110611638575050500390f35b8251151584528594506020938401939092019160010161162a565b82516001600160a01b031685528796506020948501949092019160010161160a565b61168761168182612935565b5061274e565b611691828a6130c0565b5261169c81896130c0565b506001600160a01b03821660009081526007602052604090206116be82612935565b50604051916000918054906116d2826126d8565b91600181169081156117695750600114611731575b505081528190036020019020805461172c929160ff91600291906001600160a01b0316611714858a6130c0565b5201541661172282886130c0565b9015159052612a61565b6115d2565b9091925060005260206000206000905b8282106117555750508201908260206116e7565b600181602092548488015201910190611741565b60ff19168652505080151502830191508260206116e7565b80606060208093890101520161156d565b346101d1576117a036612984565b919033600052602092600d84526117be600260406000205414612ef1565b33600052600684526117da60ff60046040600020015416612f49565b33600052600784526117f0604060002084612a3b565b9060018060a01b0392611807848454161515613030565b60028301805460ff81166118975760ff191660011790557f6472e0677b5adbb50547e7ad2a9645e2ddfe667a1e2b7d6837c83f3ca0a79c8793929161185c916118539060038501612c11565b60048301612c11565b81815416600052600585524260086040600020015554169161188960405191604083526040830190612817565b9342908201528033940390a3005b60405162461bcd60e51b815260048101899052601d60248201527f4170706f696e746d656e7420616c726561647920636f6d706c657465640000006044820152606490fd5b346101d1576118ea36612984565b91909133600052602092600c845261190a60ff6040600020541615612b6b565b61191683511515612bb7565b805115611b2d57815115611ae85761192f600254612a61565b91826002556040516101008101918183106001600160401b0384111761074b5786946007936040528252848201908682526119ea6040840191868352606085019081526119d26080860191600083526119c860a0880195662386f26fc1000087526119be60c08a0198428a52600660e08c019e8f339052336000525260406000209a518b555160018b01612c11565b5160028901612c11565b5160038701612c11565b511515600485019060ff801983541691151516179055565b516005830155516006820155019160018060a01b03905116916001600160601b0360a01b928382541617905533600052600c84526040600020600160ff19825416179055600d84526002604060002055600a54600160401b81101561074b576001810180600a55811015610735577ff153ed9454b823ea4e1c0bd5fe4260a3451b672d3129e9ae76848dbe3dae04aa93611ad993611acb92600a6000527fc65a7bb8d6351c1cf70c95a316cc6a92839c986682d98bc35f958f4883f9d2a8019033908254161790556080600254966040519788528701526080860190612817565b908482036040860152612817565b914260608201528033930390a2005b60405162461bcd60e51b815260048101859052601e60248201527f4c6963656e7365206e756d6265722063616e6e6f7420626520656d70747900006044820152606490fd5b60405162461bcd60e51b815260048101859052601e60248201527f5370656369616c697a6174696f6e2063616e6e6f7420626520656d70747900006044820152606490fd5b60603660031901126101d157611b866126c2565b6001600160a01b039060248035838116908190036101d15760449182356001600160401b0381116101d157611bbf90369060040161285c565b923360005285602095600d8752611bdd600360406000205414612f95565b169586600052600d8652611bf8600260406000205414612fef565b866000526006865260ff6004604060002001541615611edd5783600052600d86526001918260406000205403611ea75787600052600687526005604060002001543410611e5957336000526005875260ff60076040600020015460081c16611e0457600e54600090878901825b828110611db7575b50505015611d81578760005260078752611c8b604060002087612a3b565b938454928316611d3f5750506001600160a01b031916331782554290820155600201805460ff19169055600354600091829182918291611cca90612a61565b60035581903415611d35575b3491f115611d29577f95aecf3a5b506da06de5b2a2f7832cc593404b29cd3f2025fc233c70b7c7885c90611d1560405191606083526060830190612817565b9234908201524260408201528033930390a3005b6040513d6000823e3d90fd5b6108fc9150611cd6565b7f54696d6520736c6f7420616c726561647920626f6f6b6564000000000000000060649260188a936040519462461bcd60e51b86526004860152840152820152fd5b8670125b9d985b1a59081d1a5b59481cdb1bdd607a1b6064926011876040519462461bcd60e51b86526004860152840152820152fd5b611dd3611dda611dc683612935565b5060405192838092612a86565b038261272d565b8b81519101208a51832014611df757611df290612a61565b611c65565b5050505082898080611c6d565b867f44656365617365642070617469656e74732063616e6e6f7420626f6f6b206170608492602a876040519462461bcd60e51b8652600486015284015282015269706f696e746d656e747360b01b6064820152fd5b867f496e73756666696369656e74207061796d656e7420666f72206170706f696e74608492866040519362461bcd60e51b8552600485015280840152820152631b595b9d60e21b6064820152fd5b86702737ba1030903b30b634b21030b236b4b760791b6064926011876040519462461bcd60e51b86526004860152840152820152fd5b60405162461bcd60e51b81526004810187905260168185015275111bd8dd1bdc881a5cc81b9bdd081d995c9a599a595960521b81840152606490fd5b346101d15760203660031901126101d15760043533600052600d602052611f47600260406000205414612ef1565b336000526006602052611f6460ff60046040600020015416612f49565b8015611f7f5733600090815260066020526040902060050155005b60405162461bcd60e51b815260206004820152601a60248201527f466565206d7573742062652067726561746572207468616e20300000000000006044820152606490fd5b346101d15760203660031901126101d1576001600160a01b03611fe56126c2565b166000526004602052604060002080546120016001830161274e565b9160ff600360028301549201541661202b6040519485948552608060208601526080850190612817565b916040840152151560608301520390f35b346101d15760203660031901126101d157600435600a548110156101d157600a6000527fc65a7bb8d6351c1cf70c95a316cc6a92839c986682d98bc35f958f4883f9d2a801546040516001600160a01b039091168152602090f35b346101d15760603660031901126101d1576120b06126c2565b6024359060443590811591821581036101d15733600052602091600d83526120df600160406000205414612d66565b33600052600483526120fb60ff60036040600020015416612dbe565b60018060a01b03169283600052600d835261211d600360406000205414612e0a565b6003851161225a5783600052600583526040600020600781019160ff835460081c169081612252575b506121fe578560056121649261215e6080989961283c565b01612d4e565b8160ff825460081c16156121e3575b50508360405160408152600d60408201526c76616363696e6553746174757360981b6060820152428482015260008051602061328d833981519152948591a26121b857005b60809060405190604082526008604083015267191958d9585cd95960c21b60608301524290820152a2005b815461ff00191690151560081b61ff00161790558481612173565b60405162461bcd60e51b815260048101859052602660248201527f446561642070617469656e742063616e6e6f74206265206d61726b656420617360448201526520616c69766560d01b6064820152608490fd5b905087612146565b60405162461bcd60e51b8152600481018490526016602482015275496e76616c69642076616363696e652073746174757360501b6044820152606490fd5b346101d15760203660031901126101d1576122b16126c2565b33600052600d6020526122cb600360406000205414612f95565b6001600160a01b039081166000818152600c602052604090205460ff16156123355733600052600f60205260406000208054600160401b81101561074b576123189160018201815561296c565b909283549160031b90811b9283911b169119161790556000604051f35b60405162461bcd60e51b815260206004820152602b60248201527f456d657267656e637920636f6e74616374206d7573742062652061207265676960448201526a39ba32b932b2103ab9b2b960a91b6064820152608490fd5b346101d15760003660031901126101d1576020600054604051908152f35b346101d1576020806003193601126101d1576001600160401b036004358181116101d1576123de90369060040161285c565b9133600052600c81526123f960ff6040600020541615612b6b565b61240583511515612bb7565b612410600054612a61565b918260005560405160808101918183109083111761074b57600d9361248692604052815260038382018681526040830142815261246a60608501926001845233600052600488526040600020955186555160018601612c11565b51600284015551151591019060ff801983541691151516179055565b33600052600c81526040600020600160ff19825416179055526001604060002055600b54600160401b81101561074b576001810180600b5581101561073557600b6000527f0175b7a638427703f0dbe7bb9bbf987a2551717b34e79f33b5b1008d1fa01db901336001600160601b0360a01b8254161790557f74e6a337d95c5b7de3c8d5db7dcd734c06d5ffd6eb33c527f8dff80f1331d1146107306000546040519182913395429184612d15565b346101d15761036b612569612549366128b2565b9033600052600c60205261256460ff6040600020541661307b565b6130d4565b91604095939551958695866128f4565b346101d15760203660031901126101d1576001600160a01b038061259b6126c2565b166000526005602052604060002090815490600183015492600281016125c09061274e565b916125cd6003830161274e565b6125d96004840161274e565b91600584015460ff16600685016125ef9061274e565b60078601549160ff8316956008880154956009890161260d9061274e565b98600c0154996040519c8d9c8d5260208d01528b6101a06040819201528c0161263591612817565b8b810360608d015261264691612817565b8a810360808c015261265791612817565b906126618161283c565b60a08a015288810360c08a015261267791612817565b936126818161283c565b60e08801528060081c60ff16151561010088015260101c166101208601526101408501528381036101608501526126b791612817565b906101808301520390f35b600435906001600160a01b03821682036101d157565b90600182811c92168015612708575b60208310146126f257565b634e487b7160e01b600052602260045260246000fd5b91607f16916126e7565b602081019081106001600160401b0382111761074b57604052565b90601f801991011681019081106001600160401b0382111761074b57604052565b9060405191826000825492612762846126d8565b9081845260019485811690816000146127d1575060011461278e575b505061278c9250038361272d565b565b9093915060005260209081600020936000915b8183106127b957505061278c9350820101388061277e565b855488840185015294850194879450918301916127a1565b91505061278c94506020925060ff191682840152151560051b820101388061277e565b60005b8381106128075750506000910152565b81810151838201526020016127f7565b90602091612830815180928185528580860191016127f4565b601f01601f1916010190565b6004111561284657565b634e487b7160e01b600052602160045260246000fd5b81601f820112156101d1578035906001600160401b03821161074b5760405192612890601f8401601f19166020018561272d565b828452602083830101116101d157816000926020809301838601378301015290565b9060406003198301126101d1576004356001600160a01b03811681036101d15791602435906001600160401b0382116101d1576128f19160040161285c565b90565b939092612927926128f1969460018060a01b0316865260208601521515604085015260a0606085015260a0840190612817565b916080818403910152612817565b600e5481101561073557600e6000527fbb7b4a454dc3493923482f07822329ed19e8244eff582cc204f8554c3620c3fd0190600090565b80548210156107355760005260206000200190600090565b60606003198201126101d1576001600160401b03916004358381116101d157826129b09160040161285c565b926024358181116101d157836129c89160040161285c565b926044359182116101d1576128f19160040161285c565b908082519081815260208091019281808460051b8301019501936000915b848310612a0d5750505050505090565b9091929394958480612a2b600193601f198682030187528a51612817565b98019301930191949392906129fd565b602090612a559282604051948386809551938492016127f4565b82019081520301902090565b6000198114612a705760010190565b634e487b7160e01b600052601160045260246000fd5b9060009291805491612a97836126d8565b918282526001938481169081600014612af95750600114612ab9575b50505050565b90919394506000526020928360002092846000945b838610612ae5575050505001019038808080612ab3565b805485870183015294019385908201612ace565b9294505050602093945060ff191683830152151560051b01019038808080612ab3565b600e549060005b828110612b3257505050600090565b611dd3612b41611dc683612935565b80516020809201209083519084012014612b6357612b5e90612a61565b612b23565b505050600190565b15612b7257565b60405162461bcd60e51b815260206004820152601a60248201527f596f752061726520616c726561647920726567697374657265640000000000006044820152606490fd5b15612bbe57565b60405162461bcd60e51b81526020600482015260146024820152734e616d652063616e6e6f7420626520656d70747960601b6044820152606490fd5b818110612c05575050565b60008155600101612bfa565b91909182516001600160401b03811161074b57612c2e82546126d8565b601f8111612cd8575b50602080601f8311600114612c74575081929394600092612c69575b50508160011b916000199060031b1c1916179055565b015190503880612c53565b90601f198316958460005282600020926000905b888210612cc057505083600195969710612ca7575b505050811b019055565b015160001960f88460031b161c19169055388080612c9d565b80600185968294968601518155019501930190612c88565b612d0590836000526020600020601f840160051c81019160208510612d0b575b601f0160051c0190612bfa565b38612c37565b9091508190612cf8565b939291612d32906040928652606060208701526060860190612817565b930152565b6001600160401b03811161074b5760051b60200190565b90612d588161283c565b60ff80198354169116179055565b15612d6d57565b60405162461bcd60e51b815260206004820152602360248201527f4f6e6c792061646d696e732063616e20706572666f726d20746869732061637460448201526234b7b760e91b6064820152608490fd5b15612dc557565b60405162461bcd60e51b815260206004820152601b60248201527f41646d696e206163636f756e74206973206e6f742061637469766500000000006044820152606490fd5b15612e1157565b60405162461bcd60e51b815260206004820152602360248201527f41646472657373206973206e6f74206120726567697374657265642070617469604482015262195b9d60ea1b6064820152608490fd5b15612e6957565b60405162461bcd60e51b815260206004820152601e60248201527f43616e6e6f74207570646174652064656365617365642070617469656e7400006044820152606490fd5b8054600160401b81101561074b57612ecb9160018201815561296c565b919091612edb5761278c91612c11565b634e487b7160e01b600052600060045260246000fd5b15612ef857565b60405162461bcd60e51b8152602060048201526024808201527f4f6e6c7920646f63746f72732063616e20706572666f726d20746869732061636044820152633a34b7b760e11b6064820152608490fd5b15612f5057565b60405162461bcd60e51b815260206004820152601e60248201527f446f63746f72206163636f756e74206973206e6f7420766572696669656400006044820152606490fd5b15612f9c57565b60405162461bcd60e51b815260206004820152602560248201527f4f6e6c792070617469656e74732063616e20706572666f726d2074686973206160448201526431ba34b7b760d91b6064820152608490fd5b15612ff657565b60405162461bcd60e51b81526020600482015260126024820152712737ba1030903b30b634b2103237b1ba37b960711b6044820152606490fd5b1561303757565b606460405162461bcd60e51b815260206004820152602060248201527f4e6f206170706f696e746d656e7420696e20746869732074696d6520736c6f746044820152fd5b1561308257565b60405162461bcd60e51b8152602060048201526016602482015275165bdd481b5d5cdd081899481c9959da5cdd195c995960521b6044820152606490fd5b80518210156107355760209160051b010190565b9160018060a01b0380931691613110600091848352600d6020526130fe6002604085205414612fef565b84835260076020526040832090612a3b565b9384541692613120841515613030565b3314158061319b575b80613191575b61315e575060018301549260ff600282015416929392916128f160046131576003850161274e565b930161274e565b60ff60026001860154950154169293929160405161317b81612712565b828152916040519061318c82612712565b815290565b508233141561312f565b50338152600d602052600160408220541415613129565b156131b957565b60405162461bcd60e51b8152602060048201526013602482015272139bdd0818481d985b1a59081c185d1a595b9d606a1b6044820152606490fd5b156131fb57565b60405162461bcd60e51b815260206004820152602760248201527f4e6f7420617574686f72697a656420746f2076696577207468697320696e666f6044820152663936b0ba34b7b760c91b6064820152608490fd5b1561325757565b60405162461bcd60e51b815260206004820152600d60248201526c092dcecc2d8d2c840d2dcc8caf609b1b6044820152606490fdfe474cca1c43e391565f581648e6e8c3b04e9cfb6061f572912446ffd86cb9b79ea2646970667358221220e4688b1cd1dbcf96d33fb24873cd66286b17558708795a41746cd480964d080c64736f6c63430008100033",
  "immutableReferences": {},
  "source": "// SPDX-License-Identifier: MIT\r\npragma solidity ^0.8.0;\r\n\r\n/**\r\n * @title PatientManagement\r\n * @dev A system for managing patient records, appointments, and healthcare data on blockchain\r\n */\r\ncontract PatientManagement {\r\n  // Enum for vaccine status to replace string-based comparisons\r\n  enum VaccineStatus {\r\n    NOT_VACCINATED,\r\n    ONE_DOSE,\r\n    TWO_DOSE,\r\n    BOOSTER\r\n  }\r\n\r\n  // Enum for patient severity status\r\n  enum PatientSeverity {\r\n    MILD,\r\n    MODERATE,\r\n    SEVERE,\r\n    CRITICAL\r\n  }\r\n\r\n  // Admin structure\r\n  struct Admin {\r\n    uint id;\r\n    string name;\r\n    uint timestamp;\r\n    bool active;\r\n  }\r\n\r\n  // Patient structure\r\n  struct Patient {\r\n    uint id;\r\n    uint age;\r\n    string name;\r\n    string gender;\r\n    string district;\r\n    VaccineStatus vaccineStatus;\r\n    string symptomsDetails;\r\n    PatientSeverity severity;\r\n    bool isDead;\r\n    address patientAddress;\r\n    uint lastCheckup;\r\n    string bloodGroup;\r\n    string[] allergies;\r\n    string[] medications;\r\n    uint timestamp;\r\n  }\r\n\r\n  // Doctor structure\r\n  struct Doctor {\r\n    uint id;\r\n    string name;\r\n    string specialization;\r\n    string licenseNumber;\r\n    bool verified;\r\n    uint appointmentFee;\r\n    uint timestamp;\r\n    address doctorAddress;\r\n  }\r\n\r\n  // Appointment structure\r\n  struct Appointment {\r\n    address patient;\r\n    uint timestamp;\r\n    bool completed;\r\n    string diagnosis;\r\n    string prescription;\r\n  }\r\n\r\n  // District statistics\r\n  struct DistrictData {\r\n    string districtName;\r\n    uint childrenCount;\r\n    uint teenageCount;\r\n    uint youngCount;\r\n    uint elderCount;\r\n    uint childrenPercent;\r\n    uint teenagePercent;\r\n    uint youngPercent;\r\n    uint elderPercent;\r\n    uint totalPatients;\r\n    uint medianAge;\r\n  }\r\n\r\n  // Counters for each entity\r\n  uint public adminCount;\r\n  uint public patientCount;\r\n  uint public doctorCount;\r\n  uint public appointmentCount;\r\n\r\n  // Mappings for storing user data\r\n  mapping(address => Admin) public admins;\r\n  mapping(address => Patient) public patients;\r\n  mapping(address => Doctor) public doctors;\r\n  mapping(address => mapping(string => Appointment)) public doctorAppointments;\r\n  mapping(string => mapping(uint256 => bool)) public doctorSchedule;\r\n\r\n  // Address lists\r\n  address[] public patientAddresses;\r\n  address[] public doctorAddresses;\r\n  address[] public adminAddresses;\r\n\r\n  // User registration and type\r\n  mapping(address => bool) private registeredUsers;\r\n  mapping(address => uint) public userType; \r\n\r\n  // Available time slots\r\n  string[] public timeSlots = [\r\n  \"1:00 PM - 2:00 PM\",\r\n  \"2:00 PM - 3:00 PM\",\r\n  \"3:00 PM - 4:00 PM\",\r\n  \"4:00 PM - 5:00 PM\",\r\n  \"5:00 PM - 6:00 PM\",\r\n  \"6:00 PM - 7:00 PM\"\r\n ];\r\n\r\n // Check if provided slot exists\r\n function isSlotValid(string memory timeSlot) public view returns (bool) {\r\n    for (uint i = 0; i < timeSlots.length; i++) {\r\n        if (keccak256(bytes(timeSlots[i])) == keccak256(bytes(timeSlot))) {\r\n            return true;\r\n        }\r\n    }\r\n    return false;\r\n  }\r\n\r\n  // Emergency contacts for patients\r\n  mapping(address => address[]) public emergencyContacts;\r\n\r\n  // Events for logging actions\r\n  event AdminRegistered(address indexed adminAddress, uint id, string name, uint timestamp);\r\n  event DoctorRegistered(\r\n    address indexed doctorAddress,\r\n    uint256 id,\r\n    string name,\r\n    string specialization,\r\n    uint256 timestamp\r\n  );\r\n\r\n  event PatientRegistered(address indexed patientAddress, uint id, string name, uint timestamp);\r\n  event PatientUpdated(address indexed patientAddress, string updateField, uint timestamp);\r\n  event AppointmentBooked(\r\n    address indexed patientAddress,\r\n    address indexed doctorAddress,\r\n    string timeSlot,\r\n    uint fee,\r\n    uint timestamp\r\n  );\r\n\r\n  event AppointmentCompleted(\r\n    address indexed patientAddress,\r\n    address indexed doctorAddress,\r\n    string timeSlot,\r\n    uint timestamp\r\n  );\r\n\r\n  // Modifier: restrict to admin only\r\n  modifier onlyAdmin() {\r\n    require(userType[msg.sender] == 1, \"Only admins can perform this action\");\r\n    require(admins[msg.sender].active, \"Admin account is not active\");\r\n    _;\r\n  }\r\n\r\n  // Modifier: restrict to verified doctors\r\n  modifier onlyDoctor() {\r\n    require(userType[msg.sender] == 2, \"Only doctors can perform this action\");\r\n    require(doctors[msg.sender].verified, \"Doctor account is not verified\");\r\n    _;\r\n  }\r\n\r\n  // Modifier: restrict to patients\r\n  modifier onlyPatient() {\r\n    require(userType[msg.sender] == 3, \"Only patients can perform this action\");\r\n    _;\r\n  }\r\n\r\n  // Modifier: only registered users can access\r\n  modifier onlyRegisteredUser() {\r\n    require(registeredUsers[msg.sender], \"You must be registered\");\r\n    _;\r\n  }\r\n\r\n  // Constructor: registers contract deployer as the first admin\r\n  constructor() {\r\n    address hardcodedAdmin = 0x0D2f38cD0F5CB5E52e8701e0378Dfa958AA43cf5;\r\n    adminCount++;\r\n    admins[hardcodedAdmin] = Admin({\r\n      id: adminCount,\r\n      name: \"Contract Deployer\",\r\n      timestamp: block.timestamp,\r\n      active: true\r\n    });\r\n    registeredUsers[hardcodedAdmin] = true;\r\n    userType[hardcodedAdmin] = 1;\r\n    adminAddresses.push(hardcodedAdmin);\r\n\r\n    emit AdminRegistered(hardcodedAdmin, adminCount, \"Contract Deployer\", block.timestamp);\r\n  }\r\n\r\n  // Function to register a new admin\r\n  function registerAdmin(string memory name) public {\r\n    require(!registeredUsers[msg.sender], \"You are already registered\");\r\n    require(bytes(name).length > 0, \"Name cannot be empty\");\r\n\r\n    adminCount++;\r\n    admins[msg.sender] = Admin({\r\n      id: adminCount,\r\n      name: name,\r\n      timestamp: block.timestamp,\r\n      active: true\r\n    });\r\n\r\n    registeredUsers[msg.sender] = true;\r\n    userType[msg.sender] = 1;\r\n    adminAddresses.push(msg.sender);\r\n\r\n    emit AdminRegistered(msg.sender, adminCount, name, block.timestamp);\r\n  }\r\n\r\n  // Function to register a new patient\r\n  function registerPatient(\r\n    uint age,\r\n    string memory name,\r\n    string memory gender,\r\n    string memory district,\r\n    string memory symptomsDetails,\r\n    string memory bloodGroup\r\n  ) \r\n  \r\n  // Ensure user is not already registered\r\n  public {\r\n    require(!registeredUsers[msg.sender], \"You are already registered\");\r\n    require(bytes(name).length > 0, \"Name cannot be empty\");\r\n    require(age > 0, \"Age must be greater than 0\");\r\n    require(bytes(gender).length > 0, \"Gender cannot be empty\");\r\n    require(bytes(district).length > 0, \"District cannot be empty\");\r\n    require(bytes(symptomsDetails).length > 0, \"Symptoms details cannot be empty\");\r\n    require(bytes(bloodGroup).length > 0, \"Blood group cannot be empty\");\r\n\r\n    patientCount++;\r\n\r\n    string[] memory emptyStringArray = new string[](0);\r\n\r\n    // Create and store patient record\r\n    patients[msg.sender] = Patient({\r\n      id: patientCount,\r\n      name: name,\r\n      age: age,\r\n      gender: gender,\r\n      district: district,\r\n      vaccineStatus: VaccineStatus.NOT_VACCINATED,\r\n      symptomsDetails: symptomsDetails,\r\n      severity: PatientSeverity.MILD,\r\n      isDead: false,\r\n      patientAddress: msg.sender,\r\n      lastCheckup: block.timestamp,\r\n      bloodGroup: bloodGroup,\r\n      allergies: emptyStringArray,\r\n      medications: emptyStringArray,\r\n      timestamp: block.timestamp\r\n    });\r\n\r\n     // Mark user as registered\r\n    registeredUsers[msg.sender] = true;\r\n    userType[msg.sender] = 3;\r\n    patientAddresses.push(msg.sender);\r\n\r\n     // Emit event for logging\r\n    emit PatientRegistered(msg.sender, patientCount, name, block.timestamp);\r\n  }\r\n\r\n  // Function to register a new doctor\r\n  function registerDoctor(\r\n    string memory name,\r\n    string memory specialization,\r\n    string memory licenseNumber\r\n  ) public {\r\n    require(!registeredUsers[msg.sender], \"You are already registered\");\r\n    require(bytes(name).length > 0, \"Name cannot be empty\");\r\n    require(bytes(specialization).length > 0, \"Specialization cannot be empty\");\r\n    require(bytes(licenseNumber).length > 0, \"License number cannot be empty\");\r\n\r\n    doctorCount++;\r\n\r\n    doctors[msg.sender] = Doctor({\r\n      id: doctorCount,\r\n      name: name,\r\n      specialization: specialization,\r\n      licenseNumber: licenseNumber,\r\n      verified: false,\r\n      appointmentFee: 0.01 ether,\r\n      timestamp: block.timestamp,\r\n      doctorAddress: msg.sender\r\n    });\r\n\r\n    registeredUsers[msg.sender] = true;\r\n    userType[msg.sender] = 2;\r\n    doctorAddresses.push(msg.sender);\r\n\r\n    emit DoctorRegistered(msg.sender, doctorCount, name, specialization, block.timestamp);\r\n  }\r\n\r\n  // Function to update patient data\r\n  function updatePatientData(\r\n    address patientAddress,\r\n    uint vaccineStatusCode,\r\n    bool isDead\r\n  ) public onlyAdmin {\r\n    require(userType[patientAddress] == 3, \"Address is not a registered patient\");\r\n    require(vaccineStatusCode <= uint(VaccineStatus.BOOSTER), \"Invalid vaccine status\");\r\n\r\n    Patient storage patient = patients[patientAddress];\r\n\r\n    require(!(patient.isDead && isDead == false), \"Dead patient cannot be marked as alive\");\r\n\r\n    patient.vaccineStatus = VaccineStatus(vaccineStatusCode);\r\n    if (!patient.isDead) {\r\n      patient.isDead = isDead;\r\n    }\r\n\r\n    emit PatientUpdated(patientAddress, \"vaccineStatus\", block.timestamp);\r\n    if (isDead) {\r\n      emit PatientUpdated(patientAddress, \"deceased\", block.timestamp);\r\n    }\r\n  }\r\n\r\n  // Update severity level of a patient\r\n  function updatePatientSeverity(address patientAddress, uint severityCode) public onlyAdmin {\r\n    require(userType[patientAddress] == 3, \"Address is not a registered patient\");\r\n    require(severityCode <= uint(PatientSeverity.CRITICAL), \"Invalid severity status\");\r\n    require(!patients[patientAddress].isDead, \"Cannot update deceased patient\");\r\n\r\n    patients[patientAddress].severity = PatientSeverity(severityCode);\r\n    patients[patientAddress].lastCheckup = block.timestamp;\r\n\r\n    emit PatientUpdated(patientAddress, \"severity\", block.timestamp);\r\n  }\r\n  \r\n  // Add allergy record to a patient\r\n  function addPatientAllergy(address patientAddress, string memory allergy) public onlyAdmin {\r\n    require(userType[patientAddress] == 3, \"Address is not a registered patient\");\r\n    require(bytes(allergy).length > 0, \"Allergy cannot be empty\");\r\n    require(!patients[patientAddress].isDead, \"Cannot update deceased patient\");\r\n\r\n    patients[patientAddress].allergies.push(allergy);\r\n\r\n    emit PatientUpdated(patientAddress, \"allergy\", block.timestamp);\r\n  }\r\n\r\n  // Add medication record to a patient\r\n  function addPatientMedication(address patientAddress, string memory medication) public onlyAdmin {\r\n    require(userType[patientAddress] == 3,\"Address is not a registered patient\");\r\n    require(bytes(medication).length > 0, \"Medication cannot be empty\");\r\n    require(!patients[patientAddress].isDead, \"Cannot update deceased patient\");\r\n\r\n    patients[patientAddress].medications.push(medication);\r\n\r\n    emit PatientUpdated(patientAddress, \"medication\", block.timestamp);\r\n  }\r\n\r\n  // Function to verify a doctor\r\n  function verifyDoctor(address doctorAddress) public onlyAdmin {\r\n    require(userType[doctorAddress] == 2, \"Address is not a registered doctor\");\r\n\r\n    doctors[doctorAddress].verified = true;\r\n\r\n    emit DoctorRegistered(\r\n      doctorAddress,\r\n      doctors[doctorAddress].id,\r\n      doctors[doctorAddress].name,\r\n      doctors[doctorAddress].specialization,\r\n      block.timestamp\r\n    );\r\n  }\r\n\r\n  // Function to set appointment fee for a doctor\r\n  function setDoctorAppointmentFee(uint fee) public onlyDoctor {\r\n    require(fee > 0, \"Fee must be greater than 0\");\r\n\r\n    doctors[msg.sender].appointmentFee = fee;\r\n  }\r\n  \r\n  // Function to book an appointment with a doctor\r\n  function bookAppointment(\r\n    address doctorAddress,\r\n    address adminAddress,\r\n    string memory timeSlot\r\n  ) public payable onlyPatient {\r\n    require(userType[doctorAddress] == 2, \"Not a valid doctor\");\r\n    require(doctors[doctorAddress].verified, \"Doctor is not verified\");\r\n    require(userType[adminAddress] == 1, \"Not a valid admin\");\r\n    require(\r\n      msg.value >= doctors[doctorAddress].appointmentFee,\r\n      \"Insufficient payment for appointment\"\r\n    );\r\n    require(!patients[msg.sender].isDead, \"Deceased patients cannot book appointments\");\r\n\r\n    bool validSlot = false;\r\n    for (uint i = 0; i < timeSlots.length; i++) {\r\n      if (keccak256(bytes(timeSlots[i])) == keccak256(bytes(timeSlot))) {\r\n        validSlot = true;\r\n        break;\r\n      }\r\n    }\r\n    require(validSlot, \"Invalid time slot\");\r\n\r\n    Appointment storage appointment = doctorAppointments[doctorAddress][timeSlot];\r\n    require(appointment.patient == address(0), \"Time slot already booked\");\r\n\r\n    appointment.patient = msg.sender;\r\n    appointment.timestamp = block.timestamp;\r\n    appointment.completed = false;\r\n\r\n    appointmentCount++;\r\n\r\n    payable(adminAddress).transfer(msg.value);\r\n\r\n    emit AppointmentBooked(msg.sender, doctorAddress, timeSlot, msg.value, block.timestamp);\r\n  }\r\n\r\n  // Function to complete an appointment\r\n  function completeAppointment(\r\n    string memory timeSlot,\r\n    string memory diagnosis,\r\n    string memory prescription\r\n  ) public onlyDoctor {\r\n    Appointment storage appointment = doctorAppointments[msg.sender][timeSlot];\r\n\r\n    require(appointment.patient != address(0), \"No appointment in this time slot\");\r\n    require(!appointment.completed, \"Appointment already completed\");\r\n\r\n    appointment.completed = true;\r\n    appointment.diagnosis = diagnosis;\r\n    appointment.prescription = prescription;\r\n\r\n    patients[appointment.patient].lastCheckup = block.timestamp;\r\n\r\n    emit AppointmentCompleted(appointment.patient, msg.sender, timeSlot, block.timestamp);\r\n  }\r\n\r\n  // Add allergy record to a patient\r\n  function viewAppointmentSchedule(\r\n    address doctorAddress\r\n  ) public view onlyRegisteredUser returns (string[] memory, address[] memory, bool[] memory) {\r\n    require(userType[doctorAddress] == 2, \"Not a valid doctor\");\r\n\r\n    string[] memory availableSlots = new string[](timeSlots.length);\r\n    address[] memory bookedPatients = new address[](timeSlots.length);\r\n    bool[] memory completionStatus = new bool[](timeSlots.length);\r\n\r\n    for (uint i = 0; i < timeSlots.length; i++) {\r\n      availableSlots[i] = timeSlots[i];\r\n      Appointment storage appointment = doctorAppointments[doctorAddress][timeSlots[i]];\r\n      bookedPatients[i] = appointment.patient;\r\n      completionStatus[i] = appointment.completed;\r\n    }\r\n\r\n    return (availableSlots, bookedPatients, completionStatus);\r\n  }\r\n\r\n  // Function to get appointment details\r\n  function getAppointmentDetails(\r\n    address doctorAddress,\r\n    string memory timeSlot\r\n  ) public view onlyRegisteredUser returns (address, uint, bool, string memory, string memory) {\r\n    require(userType[doctorAddress] == 2, \"Not a valid doctor\");\r\n\r\n    Appointment storage appointment = doctorAppointments[doctorAddress][timeSlot];\r\n\r\n    require(appointment.patient != address(0), \"No appointment in this time slot\");\r\n\r\n    if (\r\n      msg.sender != doctorAddress && userType[msg.sender] != 1 && msg.sender != appointment.patient\r\n    ) {\r\n      return (appointment.patient, appointment.timestamp, appointment.completed, \"\", \"\");\r\n    }\r\n\r\n    return (\r\n      appointment.patient,\r\n      appointment.timestamp,\r\n      appointment.completed,\r\n      appointment.diagnosis,\r\n      appointment.prescription\r\n    );\r\n  }\r\n\r\n  // Function to get patient details\r\n  function getPatientAllergies(\r\n    address patientAddress\r\n  ) public view onlyRegisteredUser returns (string[] memory) {\r\n    require(userType[patientAddress] == 3, \"Not a valid patient\");\r\n\r\n    // Only admin, doctor, or patient themselves can view this\r\n    require(\r\n      userType[msg.sender] == 1 || userType[msg.sender] == 2 || msg.sender == patientAddress,\r\n      \"Not authorized to view this information\"\r\n    );\r\n\r\n    return patients[patientAddress].allergies;\r\n  }\r\n  \r\n  // Function to get patient medications\r\n  function getPatientMedications(\r\n    address patientAddress\r\n  ) public view onlyRegisteredUser returns (string[] memory) {\r\n    require(userType[patientAddress] == 3, \"Not a valid patient\");\r\n\r\n    require(\r\n      userType[msg.sender] == 1 || userType[msg.sender] == 2 || msg.sender == patientAddress,\r\n      \"Not authorized to view this information\"\r\n    );\r\n\r\n    return patients[patientAddress].medications;\r\n  }\r\n\r\n  // Function to get patient details\r\n  function getCovidTrendData(\r\n    address patientAddress\r\n  ) public view onlyRegisteredUser returns (uint, string memory, uint, bool, PatientSeverity) {\r\n    require(userType[patientAddress] == 3, \"Not a valid patient\");\r\n\r\n    Patient storage patient = patients[patientAddress];\r\n\r\n    return (\r\n      patient.age,\r\n      patient.district,\r\n      uint(patient.vaccineStatus),\r\n      patient.isDead,\r\n      patient.severity\r\n    );\r\n  }\r\n\r\n  // Add allergy record to a patient\r\n  function addEmergencyContact(address contact) public onlyPatient {\r\n    require(registeredUsers[contact], \"Emergency contact must be a registered user\");\r\n\r\n    emergencyContacts[msg.sender].push(contact);\r\n  }\r\n\r\n  // Function to get emergency contacts of a patient\r\n  function getPatientCount() public view returns (uint) {\r\n    return patientCount;\r\n  }\r\n\r\n  // Return total number of registered doctors\r\n  function getDoctorCount() public view returns (uint) {\r\n    return doctorCount;\r\n  }\r\n\r\n  // Get patient address by index (only for registered users)\r\n  function getPatientByIndex(uint index) public view onlyRegisteredUser returns (address) {\r\n    require(index < patientAddresses.length, \"Invalid index\");\r\n\r\n    return patientAddresses[index];\r\n  }\r\n\r\n  // Get doctor address by index (only for registered users)\r\n  function getDoctorByIndex(uint index) public view onlyRegisteredUser returns (address) {\r\n    require(index < doctorAddresses.length, \"Invalid index\");\r\n\r\n    return doctorAddresses[index];\r\n  }\r\n}",
  "sourcePath": "C:\\Users\\Anjali Patel\\Desktop\\CN6035 FINAL\\HealthCare-dApp (2)\\contracts\\PatientManagement.sol",
  "compiler": {
    "name": "solc",
    "version": "0.8.16+commit.07a7930e.Emscripten.clang"
  },
  "schemaVersion": "3.4.16",
  "updatedAt": "2025-04-09T11:50:37.368Z",
  "networkType": "ethereum",
  "devdoc": {
    "details": "A system for managing patient records, appointments, and healthcare data on blockchain",
    "kind": "dev",
    "methods": {},
    "title": "PatientManagement",
    "version": 1
  },
  "userdoc": {
    "kind": "user",
    "methods": {},
    "version": 1
  }
}